:020000040800F2
:10000000280E0020050100082D2400088521000885
:10001000D92300083B0200083F430008000000000D
:10002000000000000000000000000000312B00086C
:100030008502000800000000D3290008332B0008C7
:100040001F0100081F0100081F0100081F01000810
:100050001F0100081F0100081F0100081F01000800
:100060001F0100081F0100081F0100081F010008F0
:100070001F0100081F0100081F0100081F010008E0
:100080001F0100081F010008C90100081F01000826
:10009000C94200081F0100081F0100081F010008D5
:1000A0001F0100081F0100081F0100081F010008B0
:1000B0001F0100081F0100081F0100081F010008A0
:1000C0001F0100081F0100081F0100081F01000890
:1000D000D5290008012E00081F0100081F01000893
:1000E0001F0100081F0100081F010008DFF810D0E1
:1000F00000F02CF80048004705440008AFF30080EA
:10010000280E00200648804706480047FEE7FEE725
:10011000FEE7FEE7FEE7FEE7FEE7FEE7FEE7FEE7B7
:10012000B32B0008ED000008D2B201E000F8012B6B
:10013000491EFBD270470022F6E710B513460A4667
:1001400004461946FFF7F0FF204610BD064C074D48
:1001500006E0E06840F0010394E807009847103497
:10016000AC42F6D3FFF7C6FF1C4500083C4500082B
:1001700070B58C1810F8015B15F0070301D110F869
:10018000013B2A1106D110F8012B03E010F8016B96
:1001900001F8016B5B1EF9D12B0705D40023521E19
:1001A0000DD401F8013BFAE710F8013BCB1A921C81
:1001B00003E013F8015B01F8015B521EF9D5A1427F
:1001C000D8D3002070BD000010B5044800F0DDF861
:1001D000BDE81040024800F0D8B8000078010020C7
:1001E000A801002070B5044600688168C943C907AA
:1001F00017D1816821F00101816000F091FB054673
:100200000AE000BF00F08CFB401B022804D92068E4
:100210008068C043C00706D020688068C043C0071C
:10022000F0D0002070BDA06A40F01000A062E06A2B
:1002300040F00100E062012070BDFEE704480021AB
:10024000C0F8031002490120C91C08707047000063
:100250000000002004480021C0F8031002490420D7
:10026000C91C0870704700000000002004480021ED
:10027000C0F8031002490220C91C08707047000032
:1002800000000020704772B6FEE77047F8B5002402
:10029000009490F824202546012A12D0012280F8EB
:1002A00024204A681F23072A0DD20668776B521E46
:1002B00002EB820293409F430B6893401F43776396
:1002C00019E00220F8BD06680D2A0AD2376BD21F4A
:1002D00002EB820293409F430B6893401F433763B6
:1002E00009E0F76A0D3A02EB820293409F430B68E4
:1002F00093401F43F7620A68072306680A2A0AD355
:10030000F7680A3A02EB420293409F438B6893409E
:100310001F43F76008E0376902EB420293409F43B6
:100320008B6893401F4337610A68102A01D0112A55
:1003300020D1124B02689A4217D193681B0219D43C
:10034000936843F4000393600968102912D10C49A3
:100350000C4A0968B1FBF2F101EB8101490000E0B0
:10036000491E00910029FBD104E0816A41F020017F
:100370008162012480F824502046F8BD0024014009
:100380006400002040420F00704770B504460068CA
:1003900006684568A90625D5B10723D5A16AC9060F
:1003A00003D4A16A41F40071A1628168C1F34241A2
:1003B000072910D1217B71B9416821F020014160EA
:1003C000A06A20F48070A062A06AC00403D4A06A6E
:1003D00040F00100A0622046FFF7D6FF21686FF0D1
:1003E0001200086028062ED570072CD5A06AC0061A
:1003F00003D4A06A40F40050A06220688168C1F371
:100400000231072909D04168490515D48168C1F333
:100410004241072910D1217B71B9416821F0800147
:100420004160A06A20F48050A062A06AC00503D495
:10043000A06A40F00100A0622046FFF726FF216875
:100440006FF00C00086068060CD5F0070AD0A06AAF
:1004500040F48030A062204600F094F821686FF0EC
:100460000100086070BD00002DE9F0414FF0000769
:1004700004003D467ED0A06A002628B9E66284F8D2
:100480002460204600F080F82046FFF7ABFEA16A0A
:10049000C90600D420B1A06A40F01000A06269E053
:1004A000A16A21F4885141F00201A1626268E16908
:1004B000237B0A4347EA43010A43A1684FF480774C
:1004C000B94209D0012907D05FF0000194F814C0A7
:1004D000BCF1010F02D00AE03946F7E7F3B1A36A95
:1004E00043F02003A362E36A43F00103E36223685D
:1004F000D3F804C02CF4694C4CEA010CC3F804C0D6
:1005000021688B68DFF870C003EA0C0313438B602B
:10051000A168B9420BD0012909D00CE0DFF85CC01A
:10052000A3690CEB43330B4343F40061DFE7218AFB
:100530000D05A5F580152168CB6A23F470032B43C4
:10054000CB62216889680E4B1940914208D1E6625E
:10055000A16A21F0020141F00101A162BDE8F08130
:10056000A06A20F0020040F01000A062E06A40F0B3
:100570000100E0620120F1E7FDF7E1FF00E0FFFF8D
:10058000FE0E1FFF7047000010B586B000210091DD
:100590000191029103911E4C03681E4903221E48DB
:1005A000A34211D18B6943F400738B618B6903F40F
:1005B000007304938B6943F004038B61896901F034
:1005C00004010491012113E0144CA3421DD18B6955
:1005D00043F480638B618B6903F4806304938B69BC
:1005E00043F004038B61896901F004010491022145
:1005F000CDE90012694600F095F80022114612205C
:1006000000F0FAF9122000F0E9F906B010BD000080
:100610000024014000100240000801400028014071
:1006200010B590F821100022022905D00421816321
:1006300080F82020012010BD01680B6823F00E0314
:100640000B6001680B6823F001030B6090F84030E9
:10065000C46B012101FA03F3636080F8211080F874
:100660002020104610BD000010B590F82110002485
:10067000022903D00421816301243DE001680A6856
:1006800022F00E020A6001680A6822F001020A6084
:100690001A4A0168914201D1012121E0174A14321E
:1006A000914201D110211BE0144A2832914201D11C
:1006B000891515E0114A3C32914201D189140FE0AD
:1006C0000E4A5032914202D14FF4803108E00B4A79
:1006D0006432914202D14FF4801101E04FF08071F9
:1006E000064A083A5160012180F82110002180F863
:1006F0002010416B01B18847204610BD0800024020
:1007000070B5044600F00CF90546601C02D00448A0
:100710000078044400F004F9401BA042FAD370BDF5
:10072000580000202DE9F84FDFF8B8910024A9F116
:10073000040B23460F2709F1040AABF1040EC9E0AC
:100740000125A5402A40AA427DD1674ED1F804C0B8
:10075000ACEB0608B44532D014DCBCF1030F3AD040
:1007600009DCBCF1000F2AD0BCF1010F1CD0BCF198
:10077000020F31D11DE0BCF1110F17D0BCF1120FE7
:100780002AD119E0B8F5881F19D006DCB8F5803FEA
:1007900015D0B8F5801F1FD111E0B8F5001F0ED09D
:1007A000B8F5041F18D10AE0CB6815E0CB681B1D13
:1007B00012E0CB6808330FE0CB680C330CE08B6899
:1007C0002BB1012B4FF0080303D0456104E0042353
:1007D00002E0056100E00023FF2A01D8064601E09F
:1007E00000F104064FEA840501D9A5F12005D6F8E9
:1007F000008007FA05FC28EA0C0803FA05F548EA28
:100800000508C6F800804D68ED0062D5374DAE6929
:1008100046F00106AE61AD6924F0030605F001055E
:100820000095334D06EB050CDCF80850A607360F93
:1008300007FA06F825EA0805DFF8B880404503D135
:100840004FF0000817E044E0DFF8AC80404502D1EB
:100850004FF001080FE0DFF8A480404502D14FF0CF
:10086000020808E0DFF89880404502D14FF0030805
:1008700001E04FF0040808FA06F848EA0508CCF849
:1008800008804D68D9F80060ED024D4601D5164349
:1008900000E096432E604D68DAF80060AD025546E0
:1008A00001D5164300E096432E604D68DBF80060EA
:1008B000AD035D4601D5164300E096432E604D68BA
:1008C000DEF80060ED03754601D5164300E096435F
:1008D0002E60641C0D682A46E5407FF431AFBDE808
:1008E000F88F0000080401400000111000100240C1
:1008F0000000014000080140000C014000100140D0
:1009000000140140C26821EA02030A4043EA02419E
:10091000016170470AB1016170470904FBE70000FB
:100920000148806870470000580000200248816834
:10093000027811448160704758000020074810B5C4
:10094000016841F010010160032000F075F80F20EC
:1009500000F006F800F024F8002010BD002002404E
:1009600070B50D4D04464FF47A712878B1FBF0F064
:100970000A490968B1FBF0F001F0F4F948B9102C0C
:1009800007D200222146501E00F036F800206C608D
:1009900070BD012070BD00005800002064000020E0
:1009A0000C4808B5816941F001018161816901F05C
:1009B00001010091C16941F08051C161C06900F03D
:1009C000805000900448416821F0E06141F00071DE
:1009D000416008BD0010024000000140002809DB12
:1009E00000F01F02012191404009800000F1E02049
:1009F000C0F8001170470000F0B40E4B1B680C46A5
:100A0000C3F30223C3F10705042D00D90425191DE2
:100A1000072901D2002300E0DB1E012606FA05F1BA
:100A2000491E214099409E40761E16403143F0BC3D
:100A300003F08EBC0CED00E0064900F007020868E8
:100A40004FF6FF03184040EA0220034A10430860B3
:100A5000704700000CED00E00000FA0510B50C0630
:100A600007D501F0070101EB810100EBC100103057
:100A700005E001EB810100EBC10000F5A87099B21F
:100A800032B1012202730181190C4181002010BD95
:100A900000220273C180F9E7704701EB810200EB8D
:100AA000C202D0F8D402526A02F0EFBB01EB81021D
:100AB00000EBC202D0F8D402D2F8642102F048BCA4
:100AC00070B504460B0601F0070000EB800104EB53
:100AD000C1014FF001024FF0000502D54A741031F8
:100AE00003E081F8515101F5A871087094F8900263
:100AF000012808D084F89022206803F079F884F85F
:100B00009052002070BD022070BD70B5044601F007
:100B10000F002279904201D9012070BD0B0601F02F
:100B2000070000EB800104EBC1014FF001024FF020
:100B3000000502D54A74103103E081F8515101F5E6
:100B4000A8718D70087094F89002012808D084F87C
:100B50009022206803F0E9F884F89052002070BDDC
:100B6000022070BD2DE9F05F04685FEA424C0B780B
:100B70008D69B4F850C04FF000064BF68F7948F2FB
:100B8000800A48F68F7B48F2C00E4FF480672AD562
:100B90004FF0020808EBC308C44407EB4C07E45BC2
:100BA000C4F30904A54203D32D1B8D6101D00BE0D2
:100BB0008E61066836F8235005EA090585F400556C
:100BC00045EA0A0526F82350520609D50D78036830
:100BD00033F8252002EA0B0242EA0E0223F8252010
:100BE00084B30A8929E04FF0060808EBC308C4441F
:100BF00007EB4C07E45BC4F30904A54203D32D1BA8
:100C00008D6101D00BE08E61066836F8235005EA4D
:100C1000090585F4005545EA0A0526F823505206D1
:100C200009D40B78056835F8232002EA0B0242EA62
:100C30000E0225F823202CB14A8949690068234611
:100C400003F04CFB2046BDE8F09F2DE9F05F054620
:100C500000680C465FEA426C16468B692278B0F851
:100C600050C048F68F774CF280094FF4004B4FF696
:100C7000FF7E4FF4806A4FF0000172D54FF00208FA
:100C800008EBC208E0440AEB480C30F80C00C0F353
:100C90000900834211D91B1AA3610FD0730407D531
:100CA0002E6836F822303B4043EA090326F822300A
:100CB00094F82420012A47D052E1A161607810B154
:100CC000012813D01AE02868B0F85030184400EB1F
:100CD0000210B0F80424C2F30902A0F80424B0F80A
:100CE000042442F40042A0F8042407E02868B0F885
:100CF0005030184400EB0210A0F804146278286801
:100D000012B1012A11D018E0B0F85010084421782F
:100D100000EB0110B0F80C14C1F30901A0F80C1499
:100D2000B0F80C1441F4004105E0B0F85020104434
:100D3000227800EB0210A0F80C1421782846FFF767
:100D4000ACFE700472D40BE1626902446261E26934
:100D50000244E2612369226A9A4203D31846111AB7
:100D600004E03EE084F824100AB110462162617864
:100D700011B1012929D031E02968B1F8502011447E
:100D8000227801EB0211B1F80424C2F30902A1F8A0
:100D9000042401F204413E2807D94209C30600D1C8
:100DA000521E0B884BEA822207E048B14208C30773
:100DB00000D0521C0B880EEA822213430B800DE0F8
:100DC0000A8842F400420A8008E02968B1F85020FD
:100DD0001144227801EB0211A1F8040483B22289A4
:100DE000BAE04FF0060808EBC208E0440AEB480CF2
:100DF00030F80C00C0F30900834211D31B1AA36121
:100E00000FD0730407D42E6836F822303B4043EAF3
:100E1000090326F8223094F82420012A51D09FE0BB
:100E2000A161607818B1012814D01BE03FE0286868
:100E3000B0F85030184400EB0210B0F80424C2F3AC
:100E40000902A0F80424B0F8042442F40042A0F8F7
:100E5000042407E02868B0F85030184400EB021072
:100E6000A0F804146278286812B1012A11D018E0A1
:100E7000B0F850100844217800EB0110B0F80C14C1
:100E8000C1F30901A0F80C14B0F80C1441F40041AE
:100E900005E0B0F850201044227800EB0210A0F8D2
:100EA0000C1421782846FFF7F8FD700458D42278F6
:100EB000296831F82200384040EA090021F8220070
:100EC0004EE0626902446261E2690244E2612369C0
:100ED000226A9A4203D31846111A216204E00AB129
:100EE0001046216284F824106278296812B1012A20
:100EF00028D02FE0B1F850201144227801EB0211E4
:100F0000B1F80C24C2F30902A1F80C2401F20C413F
:100F10003E2807D94209C30600D1521E0B884BEA6E
:100F2000822207E048B14208C30700D0521C0B8858
:100F30000EEA822213430B800CE00A8842F400423E
:100F40000A8007E0B1F850201144227801EB021129
:100F5000A1F80C04628983B26169286803F0DCF9A6
:100F60002278296831F8220048F6BF73184080F0D3
:100F7000300048F28003184321F822000020BDE829
:100F8000F09F2DE9F04104460F0601F0070000EB49
:100F9000800104EBC1014FF001064FF0000502D5BE
:100FA0004E74103103E081F8515101F5A871022B04
:100FB00008700A61CB7000D10D7194F8900201287D
:100FC00009D084F89062206802F0C2FC284684F8B8
:100FD0009052BDE8F0810220FBE710B501F0070454
:100FE00004EB840100EBC101C1E959230022C1F8DF
:100FF0006C2181F8512181F85041006801F5A871F8
:1010000002F0E8FE002010BD70B504460D4601F068
:1010100007002179884201D9012070BD29064FF0CF
:1010200000064FF0010206D500EB800104EBC10180
:101030004A74103107E005EB850104EBC10181F82A
:10104000516101F5A8718A70087094F89002012826
:1010500007D084F89022206802F0A3FE680702D02F
:1010600006E0022070BD04F52671206802F05BFEE8
:1010700084F89062002070BD10B501F0070404EB05
:10108000840100EBC101C1E90923012281F8342068
:101090000B630023CB624A7401F8104F006802F022
:1010A00099FE002010BD00001FB50446006803F043
:1010B00011F9010403D5204601F0B8FA1FBD41051E
:1010C0000DD5206830F8441F21F48061018020464E
:1010D00000F000F90021204600F017F91FBD41047F
:1010E00005D5206830F8441F21F4804174E0810464
:1010F00005D5206830F8441F21F400516CE0C1048C
:1011000014D5206830F8401F21F0040101802068C8
:1011100030F8401F21F008010180204600F0EDF872
:10112000206830F8441F21F4805155E0010540D576
:10113000D4F800200020694632F8203021F8103021
:10114000401CC0B20828F7D332F8400F40F001002D
:101150001080206830F8402F22F0010202802068C1
:10116000B0F844205205FBD530F8442F22F48062B9
:1011700002800020236831F8102023F82020401C32
:10118000C0B20828F6D3206830F8401F41F00801AB
:101190000180206830F8441F21F40061018020683C
:1011A00030F8401F41F004010180204600F0E0F8D3
:1011B0001FBD810509D5206830F8441F21F4007156
:1011C0000180204600F09DF81FBDC005FCD52068B9
:1011D00030F8441F21F4807101801FBD2DE9F041DA
:1011E000040004D094F89102002518B107E0012012
:1011F000BDE8F08184F89052204600F04DF80320BD
:1012000084F891026571206802F086FD94E80F0071
:1012100002F0ECFC022698BB0021206803F074F871
:1012200070BB002001270BE000EB800104EBC10143
:101230004F740874CD740D624D62401CC0B28D6253
:1012400021798142F0D8002012E000BF00EB80013C
:1012500004EBC10181F8515181F8500181F85351DB
:10126000C1F86051C1F86451401CC0B2C1F8685166
:1012700021798142EAD894E80F0002F044FD10B1D0
:1012800084F89162B3E7657384F89172206802F084
:1012900038FD0020ACE7000008B500680B49884223
:1012A00012D10B48C16941F40001C161C06900223B
:1012B00000F40000009011461420FFF79DFBBDE8EC
:1012C00008401420FFF78ABB08BD0000005C004006
:1012D0000010024070B5044680790125022801D033
:1012E000FEF7D1FF2946D4F8D40202F009F9D4F868
:1012F000D402BDE8704002F0C5B8D0F8D40202F0C4
:10130000E9B8D0F8D40202F0EFB810B5044690F86E
:10131000900201280AD0012084F8900261732068AD
:1013200002F0F4FF002084F8900210BD022010BDEE
:10133000D0F8D42200F52671104602F0EDB810B5B1
:10134000044690F89002012810D0012084F8900201
:10135000206802F0B0FF01212046FFF79DFB2068C6
:1013600002F0CDFC002084F8900210BD022010BDD8
:1013700010B50446D0F8D40202F00DF9A07A002886
:1013800004D00348016841F00601016010BD00006F
:1013900010ED00E02DE9F84305460078354CC00714
:1013A00054D0E0690026C00008D4E06940F08050C5
:1013B000E061E069012600F0805000902E4801684D
:1013C000C90512D40168804641F480710160FFF7BD
:1013D000A7FA074605E000BFFFF7A2FAC01B642882
:1013E00023D8D8F80000C005F6D5206A10F4407064
:1013F00021D0A98801F4407181421CD0206A1F4984
:10140000012220F440700A6000220A602062C007B6
:1014100011D0FFF785FA074641F2883808E000BF8F
:10142000FFF77EFAC11B414502D90320BDE8F883CE
:10143000206A8007F4D5206A696820F44070084368
:1014400020621EB1E06920F08050E06128788007BA
:1014500005D56068A96820F440400843606028789A
:10146000C00605D56068E96820F480000843606024
:101470000020DBE7001002400070004040044242C0
:101480002DE9F0470F46050061D0434E306800F06B
:101490000700B84209D2306820F0070038433060B6
:1014A000306800F00700B84251D128683B4C8107F2
:1014B00012D5400703D5606840F4E060606028788A
:1014C000000703D5606840F4605060606068A968F8
:1014D00020F0F000084360602878C00728D06868D2
:1014E000012810D02168022810D0890700292EDA9F
:1014F000616821F0030101436160FFF711FA804642
:1015000041F288390DE021688903EFE78901EDE7B1
:10151000FFF706FAA0EB0801494502D90320BDE810
:10152000F0876068696800F00C00B0EB810FEFD1C4
:10153000306800F00700B8420BD9306820F007008F
:1015400038433060306800F00700B84201D0012015
:10155000E5E72878400705D56068E96820F4E06091
:10156000084360602878000706D56068296920F480
:10157000605040EAC100606000F038F86168084AD5
:10158000C1F30311515CC840064908600648006871
:10159000FFF7E6F90020C2E70020024000100240F9
:1015A00004450008640000205C0000200448054950
:1015B00000684968044AC1F30221515CC840704781
:1015C000640000200010024014450008044805494A
:1015D00000684968044AC1F3C221515CC8407047A1
:1015E0006400002000100240144500080E4A5168B3
:1015F0000E4801F00C03042B11D0082B0FD10C481E
:10160000C1F38343C903C05C0AD55168084AC1F3DA
:101610004041921E515C054A5043B0FBF1F07047C7
:1016200004494843704700000010024000127A004D
:10163000F444000800093D002DE9F84F040070D083
:101640002078C04DC00749D06868C0F381000128E8
:1016500007D06868C0F38100022809D16868C00318
:1016600006D52868800339D560680028E7D035E0C2
:101670006068B0F5803F0BD010B1B0F5A02F11D04D
:10168000286820F480302860286820F4802002E058
:10169000286840F480302860606890B1FFF740F916
:1016A00006460AE0286840F480202860F0E700BF82
:1016B000FFF736F9801B642873D828688003F7D5B4
:1016C0000CE0FFF72DF9064605E000BFFFF728F90B
:1016D000801B6428F0D828688003F7D420789A4EBD
:1016E00080074FF001094FF0000839D5686810F005
:1016F0000C0F07D06868C0F38100022809D1686820
:10170000C00306D42868800714D52069012808D1B1
:1017100010E02069B0B1C6F80090FFF701F9074664
:1017200005E00AE1FFF7FCF8C01B0228C4D82868CE
:101730008007F7D52868616920F0F80040EAC10009
:1017400028600DE0C6F80080FFF7EAF8074604E0DD
:10175000FFF7E6F8C01B022823D828688007F7D4D3
:10176000207800072CD57948A169D9B1C0F800903C
:10177000FFF7D6F8074604E0FFF7D2F8C01B0228AF
:101780000FD8686A8007F7D571484FF4FA5100689E
:10179000B0FBF1F0009000BF0098411E0091FAD21A
:1017A0000EE080E0C0F80080FFF7BAF8074604E0DA
:1017B000FFF7B6F8C01B022875D8686A8007F7D40F
:1017C0002078400760D5E8690027C00008D4E869A0
:1017D00040F08050E861E869012700F080500090F7
:1017E0005C480168C90513D40168834641F48071DF
:1017F0000160FFF795F8824606E000BFFFF790F81A
:10180000A0EB0A0064284ED8DBF80000C005F5D52F
:10181000E06801280AD008B1052813D0286A20F012
:1018200001002862286A20F0040002E0286A40F0E3
:1018300001002862E06841F2883B98B1FFF770F838
:1018400082460BE0286A40F004002862EEE700BF01
:10185000FFF766F8A0EB0A0159455AD8286A8007B5
:10186000F6D50CE0FFF75CF8824605E0FFF758F884
:10187000A0EB0A0159454CD8286A8007F6D41FB15D
:10188000E86920F08050E861E06988B36968C1F3D5
:101890008101022944D00228C6F8608004D0FFF7F5
:1018A0003FF8044638E034E0FFF73AF8074604E032
:1018B000FFF736F8C01B02282BD828688001F7D420
:1018C000206AB0F5803F05D16868A16820F4003037
:1018D00008436860D4E908010843696821F4741179
:1018E00008436860C6F86090FFF71AF8044606E0FF
:1018F00025E000BFFFF714F8001B022809D828686C
:101900008001F7D51BE000BFFFF70AF8001B022893
:1019100002D90320BDE8F88F28688001F4D40EE0D6
:101920000128F7D06868226A00F48031914204D11E
:10193000616A00F47010884201D00120EAE70020BB
:10194000E8E70000001002400000424280044242EA
:1019500064000020007000407047000038B5044665
:10196000006842688168C9434B0606D5CB0704D19D
:10197000D3435B0601D4216C05E08B0708D4D34325
:101980001B0605D4616C01B02046BDE83040084715
:101990008B0601D54B0646D4D3439B0643D44B0656
:1019A0000AD494F85130032B3ED0636D43F0040306
:1019B0006365C36883680093890609D4616D41F04B
:1019C0000101616581680091016821F040010160B9
:1019D000606D002827D02068416821F0E001416057
:1019E000012084F85100900722D02068416821F03E
:1019F00003014160104DE06C40B14563E06CFEF7BF
:101A000033FE18B1606D40F040006065A06C0028A6
:101A100009D04563A06CFEF727FE002803D0606D57
:101A200040F04000606538BDC1688068009038BDF6
:101A30002046FFF791FF38BD152A000870B5040055
:101A400009D0606A002540B125616561A56294F8FE
:101A5000510040B10CE0012070BD6068B0F5827F9C
:101A6000F4D0E561F2E784F85050204600F040F8E9
:101A7000022084F851002068016821F040010160D3
:101A8000A088218900F4827001F404410843A189EF
:101A900001F400610843217C01F002010843217D2B
:101AA00001F001010843218B01F400710843217FFB
:101AB00001F03801084394F8201001F08001084338
:101AC000218D01F40051084321680860A0690421B8
:101AD00001EA1040216848602068C16921F4006172
:101AE000C1616565012084F85100002070BD0000CF
:101AF00030B585B0002400940194029403940068EA
:101B0000194988422DD11948C16941F48041C16108
:101B1000C16901F480410491816941F0080181614A
:101B20008069134D00F0080004904FF420400090AD
:101B3000022001900320039069462846FEF7F2FD3B
:101B40004FF48040CDE90004694628460294FEF730
:101B5000E9FD002211462420FEF74EFF2420FEF767
:101B60003DFF05B030BD00000038004000100240CD
:101B7000000C01402DE9FF4F81B01D4693460446FD
:101B80004FF001090E9EFEF7CBFE074694F8510078
:101B90006168012806D0B1F5827F3CD1A168C9BB3C
:101BA000042838D10298002871D0BBF1000FFBD077
:101BB000002DF9D094F8500001282CD04FF0010AE4
:101BC00084F850A094F85100042802D0052084F82D
:101BD00051004FF00008C4F85480C4F838B0E587CD
:101BE000A58702992163E586A586C4F84080C4F8DC
:101BF000448020680168490603D4016841F040012F
:101C00000160E068B0F5006F606808D0F0B3012DA6
:101C100049D081E0FFE7022005B0BDE8F08F08B1B0
:101C2000012D39D1206B21680088C860206B801C91
:101C30002063E08E401EE0862EE0206881688907E0
:101C40000FD5E18E69B1B9F1010F0AD1216B098875
:101C5000C160206B801C2063E08E401EE0864FF048
:101C6000000920688168C9070CD0E18F51B1C068B4
:101C7000A16B0880A06B801CA063E08F401EE087F2
:101C80004FF00109FEF74CFEC01B01E00BE067E0DE
:101C9000B04201D3701C50D1E08E0028CDD1E08F2E
:101CA0000028CAD13EE0206B216800780873206BC1
:101CB000401C2063E08E401EE0862DE02068816895
:101CC00089070FD5E18E69B1B9F1010F0AD1216BF6
:101CD00009780173206B401C2063E08E401EE08673
:101CE0004FF0000920688168C9070CD0E18F51B11D
:101CF000C068A16B0870A06B401CA063E08F401E01
:101D0000E0874FF00109FEF70BFEC01BB04202D383
:101D1000701C01D011E086B1E08E0028CED1E08F9A
:101D20000028CBD13A463146204600F07BFE50B128
:101D30002020606584F8508012E084F851A084F877
:101D40005080032068E7A06818B92068C1688068DF
:101D5000009084F851A084F85080606D0028F1D084
:101D6000012059E710B5401EB0F1807F01D301205A
:101D700010BD4FF0E02460610F21601702F0E8FA17
:101D80000020A06107202061002010BD704770472F
:101D9000F8B5016804460868CA684B6910F00F0F6F
:101DA0004FF0000559D003F0010602F49077374355
:101DB00065D0C10705D0D10503D5616C41F00101A3
:101DC0006164410705D5D90703D0616C41F0020178
:101DD0006164810705D5D90703D0616C41F0040126
:101DE0006164010707D502F02001314303D0616C23
:101DF00041F008016164616C00293AD0800604D585
:101E0000900602D5204600F004FF20684069616C0E
:101E1000C0F38010090700D460B3204600F0D2FE62
:101E200020684069400621D52068143050E8001F22
:101E300021F0400140E80012002AF5D1E06BA8B182
:101E40006D494163E06BFEF70FFC002811D0E06B99
:101E5000416B01B0BDE8F040084783060FD59306FB
:101E60000DD52046BDE8F84000F0D3BE2046FFF770
:101E70008EFFF8BD2046FFF78AFF6564F8BD266B2C
:101E80002023012E7CD1C6067AD5D60678D50868DF
:101E90004868009048694FF00206400640D5E16B63
:101EA000086840680004000CE8D0A28D8242E5D9A1
:101EB000E085886920282DD020680C3050E8001F6C
:101EC00021F4807140E80012002AF5D12068143016
:101ED00050E8001F21F0010140E80012002AF5D16E
:101EE0002068143050E8001F21F0400140E8001243
:101EF000002AF5D184F84230256320680C3050E880
:101F0000001F21F0100140E80012002AF5D1E06B1B
:101F1000FEF786FB6663A08DE18D401A81B22AE050
:101F2000A08DE18D401A81B2E08D0028A6D0002955
:101F3000A4D022680C3252E8000F20F4907042E8DE
:101F40000007002FF5D12068143050E8002F22F050
:101F5000010240E80027002FF5D184F842302563C4
:101F600020680C3050E8002F22F0100240E80023D7
:101F7000002BF5D166632046FFF708FFF8BDFFE7A9
:101F800005062BD5150629D594F841002128F5D151
:101F9000A068B0F5805F01D12069B0B1206A411C12
:101FA0002162216800784860E08C401E0004000C2B
:101FB000E084E3D12068C16821F08001C16020681D
:101FC000C16841F04001C160D8E7206A0088C0F3D1
:101FD00008004860206A801C2062E5E74006CDD5F5
:101FE0005006CBD5CA68204622F04002CA6084F869
:101FF000413000F0C6F8C1E7B52B000870B5040009
:1020000004D094F84100002510B106E0012070BD15
:1020100084F84050204600F023F8242084F8410042
:102020002068C16821F40051C160204600F052FED2
:102030002068016921F4904101612068416921F023
:102040002A0141612068C16841F40051C1606564A2
:10205000202084F8410084F842006563002070BDB0
:1020600030B585B000240094019402940394006874
:10207000184988422CD11848816941F48041816116
:10208000816901F480410491816941F00401816119
:102090008069124D00F0040004904FF4007000902D
:1020A000022001900320039069462846FEF73AFB80
:1020B0002815CDE90004694628460294FEF732FB54
:1020C000002211462520FEF797FC2520FEF786FC0E
:1020D00005B030BD0038014000100240000801404A
:1020E00070472DE9F843044690F84100984616469B
:1020F0000D46202802D00220BDE8F88385B17EB1CC
:1021000000206064212084F84100FEF709FCA684C9
:102110008146E684A0682027B0F5805F02D003E006
:102120000120E9E7206910B12E4600250EE00026C7
:102130000CE08021204600F029FEA8B9C6B116F8AF
:10214000010B21684860E08C401EE084E08C4B4627
:102150004FF00002CDF800800028EAD14FF0400196
:10216000204600F013FE40B184F841700320C3E71D
:1021700035F8020BC0F30800E3E784F84170002053
:10218000BAE77047FEE70000F0B500230A243025C7
:1021900037261F4611E000BFB4EB107F02D905EBD4
:1021A000107C01E006EB107C01F813C001EB430C3E
:1021B00000015B1C8CF80170DBB29342ECD3F0BDE4
:1021C0003EB5002410480094019402940D498460A7
:1021D000016004730475012505614FF460214460BA
:1021E000C161FEF741F908B1FEF74DF8CDE90045B0
:1021F000694605480294FEF749F8002801D0FEF729
:1022000042F83EBD00240140780100203EB5002484
:1022100010480094019402940D4984600160047395
:102220000475012505614FF460214460C161FEF72A
:102230001BF908B1FEF727F80095CDE9015469466E
:102240000448FEF723F8002801D0FEF71CF83EBD35
:1022500000280140A80100202DE9F04385B00024AA
:1022600029480094019402940394816941F010017B
:102270008161816901F010010491816941F02001BF
:102280008161816901F020010491816941F00401BB
:102290008161816901F004010491816941F00801C3
:1022A00081618069DFF8648000F008004FF4005518
:1022B0000490002229464046FEF72CFBDFF85090A0
:1022C00040F20317002239464846FEF723FB0095EB
:1022D000022601250396CDE9015469464046FEF7E2
:1022E00021FA1020CDE9000469460A480294FEF75D
:1022F00019FA00970396CDE9015469464846FEF75E
:1023000011FA05B0BDE8F083001002400010014052
:10231000000C014000080140104810B50E49016052
:102320004FF482714160002181600122C160C0E9E7
:102330000412520282610822C0E9072141628162CF
:102340000A21C162FFF77AFB002803D0BDE81040E4
:10235000FDF799BF10BD000000380040D8010020F3
:102360000C4810B50A4901604FF4E1314160002189
:1023700081600C22C160C0E904128161C161FFF774
:102380003DFE002803D0BDE81040FDF77CBF10BD26
:10239000003801403002002010B500220B490C48E3
:1023A00000F04CFF08B1FDF76EFF0A49084801F044
:1023B00018F908B1FDF767FF054801F067F9002833
:1023C00003D0BDE81040FDF75EBF10BD080000203F
:1023D000780200206C000020FEE70000064A10B5DD
:1023E0005070917004220449044800F0B0FEBDE82A
:1023F00010400A20FEF784B9030000207802002074
:1024000030B4047843788178C278181B064B00EB0F
:102410004000511A40B201EB4101587049B2997025
:1024200030BCFFF7DBBF000000000020FEE700002B
:102430001CB510A1D1E90001CDE90001082000F090
:10244000CFFA05226946302000F0A8F80522694637
:10245000102000F043F8002069460A5CA52A03D149
:10246000401CC0B20528F8D3052801D001201CBDAE
:1024700000201CBDA5A5A5A5A500000010B5154C04
:10248000002201212046FEF745FA0F21202000F00E
:10249000AFF80121212000F0ABF80121222000F04B
:1024A000A7F82821252000F0A3F80F21262000F00E
:1024B0009FF82021312000F09BF8052206492A20B0
:1024C00000F06CF820460122BDE810401146FEF7EE
:1024D00021BA0000000C0140ED4400082DE9F04154
:1024E000DFF8408015460F46044600220221404690
:1024F000FEF710FA21460C4800F00AFB06460024BD
:1025000006E0FF21084800F003FB3855641CE4B2E4
:10251000AC42F6D3012202214046FEF7FBF93046D9
:10252000BDE8F081000C0140D801002070B50B4DD2
:102530000446002202212846FEF7ECF9214608480D
:1025400000F0E6FAFF21064800F0E2FA0446012214
:1025500002212846FEF7DEF9204670BD000C01403E
:10256000D801002070B50546102000F039FA072088
:10257000FFF7DCFF04460146272000F039F860062B
:102580000AD5202229466120FFF7A8FFFF21E2207B
:1025900000F02EF8002070BD012070BD2DE9F04143
:1025A000DFF8448016460D460446002202214046CC
:1025B000FEF7B0F921460D4800F0AAFA07460024BC
:1025C00007E000BF15F8011B084800F0A1FA641CE1
:1025D000E4B2B442F6D3012202214046FEF79AF952
:1025E0003846BDE8F0810000000C0140D801002011
:1025F00070B50C4D0E460446002202212846FEF717
:1026000089F92146084800F083FA04463146064815
:1026100000F07EFA012202212846FEF77BF92046CF
:1026200070BD0000000C0140D80100202DE9F84FDA
:10263000044640F68F7B48F60F794FF480684FF0E0
:10264000000ABDE1B0F8441011F00F0539D030F8A0
:10265000256031047ED530F8251001EA0B0141F0E8
:10266000800120F8251005EB850004EBC00797F8E2
:102670005C0107F5A87700286DD0F87802286BD0A8
:102680003978226832F8210048F68F73184048F2F2
:10269000C003184322F821003978206830F821203F
:1026A000B0F8503052047DD5022202EBC1015A1815
:1026B00008EB4201415A8905890D009173D03A898E
:1026C000DDE0C9062BD4018801EA090141F400418B
:1026D0000180206804F11005B0F85030217C0222FE
:1026E00002EBC1015A1808EB4201405AC0F309003D
:1026F000E062616A0844606200212046FEF7CDF97D
:10270000607B00289DD0A86900289AD1607B216851
:1027100040F08000A1F84C0084F80DA050E1018841
:1027200004F5A8750A0521D5B0F850202B780621AC
:1027300001EBC3010A4408EB4201405A04F526713B
:10274000C0F30903EB61EA88206801F0C7FD206847
:10275000018802E0AEE06EE07EE001EA0B0141F0AC
:10276000800101802046FEF7E3FD29E10904D5D56B
:10277000018801EA0B0141F0800101802068B0F876
:1027800050202B78062101EBC3010A4408EB4201DB
:10279000405A83059B0DEB6110D0696971B1EA88DD
:1027A000206801E05FE05DE001F098FDE96968699B
:1027B0000844686100212046FEF778F921680888FE
:1027C0000205ABD4C0F301300328A7D0B1F8500004
:1027D0000844B0F80C14C1F30901A0F80C142A69DC
:1027E00000F20C403E2A09D95109D20600D1491EF7
:1027F00002884FF4004343EA812109E0B2B1510855
:10280000D20700D0491C02884FF6FF7303EA8121EA
:102810000A430280216808884BF68F72104080F4CA
:10282000405048F2800210430880C9E0018841F41A
:1028300000410180EEE72068B0F850203B78062187
:1028400001EBC3010A4408EB4201415A8905890D95
:10285000009118D0FA8812E0324639462046FEF739
:1028600081F900900FE0062202EBC1015A1808EB33
:102870004201415A8905890D009104D07A8979690C
:10288000009B01F02BFDF86900990844F861796913
:10289000009808447861B86918B139690098814294
:1028A00004D939782046FEF701F903E0394620685B
:1028B00001F090FA30062ED505EB850004EBC0013F
:1028C000206830F8252002EA090242F4004220F88C
:1028D0002520C87C103101281ED0F0056CD420685A
:1028E000B0F850300D78022202EBC5021A4408EB12
:1028F0004202805A8A69C0F30900824255D9121AED
:102900008A6154D04A6902444A61CA691044C86164
:10291000206801F05FFA53E0C1F818A0087B524626
:1029200008B3700620D5487810B1012812D03AE0DB
:102930002068B0F8502010440A7800EB0210B0F87C
:102940000424C2F30902A0F80424B0F8042442F4D9
:10295000004206E02068B0F8503018440B7800EBD5
:102960000310A0F804241EE04B78206813B1012B5B
:1029700011D018E0B0F8502010440A7800EB021093
:10298000B0F80C24C2F30902A0F80C24B0F80C240F
:1029900042F4004205E0B0F8503018440B7800EBE8
:1029A0000310A0F80C24097802E0C1F818A0E9B2DD
:1029B0002046FEF772F803E032462046FEF745F95E
:1029C0002068B0F8441009043FF53CAE0020BDE893
:1029D000F88F70470148FEF7C1BF0000D801002002
:1029E0000B4910B50A68136823F0400313600A68A6
:1029F00013684FF6C774234013600A6813680343D3
:102A000013600868016841F04001016010BD0000DA
:102A1000D801002010B5406A0021C187C186FEF7A9
:102A20009BFF10BDF8B515460E460B4600920446B6
:102A30000122022100F010F840B933460022802123
:102A40002046009500F008F8002804D0606D40F0A2
:102A5000200060650320F8BD2DE9F8431E4691462D
:102A600088460446089DFDF75BFF401B351AFDF7BD
:102A700057FF074625480068C0F3CB30684338E06D
:102A8000701C37D0FDF74CFFC01BA84203D215B114
:102A9000009860B32CE02068416821F0E0014160BB
:102AA0006068B0F5827F0BD1A068B0F5004F02D00E
:102AB000B0F5806F04D12068016821F04001016009
:102AC000A06AB0F5005F09D12068016821F40051C7
:102AD00001602068016841F400510160012084F820
:102AE0005100002084F850000320BDE8F883002541
:102AF000401E00902068816838EA010004D000215F
:102B00004945BDD10020F0E70121F9E7640000202C
:102B10003EB5FF248DF80810012301AA02A90094F4
:102B2000FFF728F808B18DF804409DF804003EBD79
:102B30007047FDF7FBBE30B593B028216846FDF71E
:102B4000FAFA14210AA8FDF7F6FA002401200F94DE
:102B500010941194010412948DE8130004904FF422
:102B6000E010CDE90810022507956846FEF764FDE0
:102B700008B172B6FEE70F20CDE90A054FF4806078
:102B8000CDE90C4002210AA80E94FEF779FC08B1A9
:102B900072B6FEE712200F904FF40040CDE9110409
:102BA0000FA8FEF7F7FB002801D072B6FEE713B0BE
:102BB00030BD704710B5406A0021C185C184FFF760
:102BC000E6F810BD01680C3151E8002F22F4907234
:102BD00041E80023002BF5D10168143151E8002FA2
:102BE00022F0010241E80023002BF5D1016B0129FD
:102BF00009D101680C3151E8002F22F0100241E8A0
:102C00000023002BF5D1202180F842100021016320
:102C1000704708B590F84210222901D0022008BD63
:102C200082684FF480539A4201D1016921B1816ACF
:102C30009A421BD04AB10AE00268816A5268C2F324
:102C400008020A80816A891C08E0026972B1026880
:102C5000526802F07F020A70816A491C8162C18D4C
:102C6000491E0904090CC18503D01BE002685268A3
:102C7000F1E70168CA6822F02002CA600168CA68E8
:102C800022F48072CA6001684A6922F001024A6136
:102C9000202180F8421000214163026B012A03D0F9
:102CA000FFF71EFA002008BD016301680C3151E8EE
:102CB000002F22F0100241E80023002BF5D101681B
:102CC0000A68D20602D50A6849680091818DFFF72B
:102CD0005DF8E7E770B5044600680169E26821F431
:102CE0004051114301612169A068084361690843AB
:102CF0002168CA6841F20C639A430243CA602068A3
:102D00004169A26921F44071114341611E49206863
:102D1000884202D1FEF75AFC01E0FEF747FC00EBC7
:102D2000C00101EB0012606864218000B2FBF0F387
:102D3000B3FBF1F36FF018067343B2FBF0F5B2FB8F
:102D4000F0F605EB8305322303EB0515B5FBF1F532
:102D5000B6FBF1F605F0F00505EB0615B2FBF0F653
:102D6000B2FBF0F0B0FBF1F06FF01802504306EB4D
:102D7000800003EB0010B0FBF1F0216800F00F00C1
:102D80002844886070BD0000003801402DE9F843F8
:102D9000984617460D460446089E24E0701C22D033
:102DA000FDF7BEFDA0EB0800B0421AD8CEB12068F6
:102DB000C168490717D5802D15D0402D13D0016863
:102DC000C94309070FD401680025406800902046D8
:102DD000FFF7F8FE0820606484F840500120BDE849
:102DE000F8830320FBE72068006835EA000004D080
:102DF0000020B842D2D00020F1E70120F9E700001E
:102E00000148FEF7C5BF00003002002010B5D0F821
:102E1000B42252689047002010BD134610B50A46F0
:102E2000002100F026FB002010BD134610B50A4615
:102E3000002100F0B9FB002010BD10B50446802130
:102E400000F097FB2046BDE81040002100F091BB48
:102E500010B505210023C0F894121A46194600F057
:102E600008FB002010BD10B50223C261C0F89432E7
:102E7000026213460A46002100F096FB002010BDB6
:102E800010B504210023C0F894121A46194600F028
:102E90008BFB002010BD000010B50A46024903A0BC
:102EA00000F0E2F8004810BD3C05002048494420ED
:102EB000436F6E6669670000122008800048704703
:102EC0002800002010B50A46024903A000F0CCF803
:102ED000004810BD3C05002048494420496E7465F7
:102EE0007266616365000000042008800048704736
:102EF0002400002010B50A46024903A000F0B4F8EF
:102F0000004810BD3C05002053544D6963726F6545
:102F10006C656374726F6E696373000010B50A4666
:102F2000024903A000F0A0F8004810BD3C050020B5
:102F300053544D33322048756D616E20696E74654F
:102F4000726661636500000010B51A2008800A48A7
:102F50000168001D0468001D0068081809D00822D7
:102F60000649FFF711F90549042210312046FFF701
:102F70000BF90248801E10BDE8F7FF1F3E0000203D
:102F8000F8B504460020ADF8000048880D46010A57
:102F9000082948D2DFE801F04704091747473C45B4
:102FA000D4F8B012207C0A6819E0207C02260028A0
:102FB000D4F8B40205D0C16A684688470146467015
:102FC0003EE0816AF8E7C0B206282CD2DFE800F0C4
:102FD000030A1014181CD4F8B002426805E06946D0
:102FE00090471CE0D4F8B0028268E2B1207CF6E79A
:102FF000D4F8B002C268F8E7D4F8B0020269F4E786
:10300000D4F8B0024269F0E7D4F8B0028269ECE784
:10301000207C40B9D4F8B402416B68468847014629
:103020000EE0207C20B129462046FFF706FFF8BDC0
:10303000D4F8B402016B68468847014607204870FF
:10304000BDF8000048B1EA8852B1824200D9024678
:10305000ADF800202046FFF706FFE8880028E6D1FB
:103060002046FFF70DFFF8BD70B5002300281ED0E5
:103070000446002502E06D1CEDB2641C2678002E8B
:10308000F9D1022404EB450414801278CA545B1C65
:103090000322CA5400245B1C06E0CA545B1CDAB24B
:1030A0008C54521CD3B2401C0278002AF5D170BD5A
:1030B00001004FF0000004D0012901D0022901D005
:1030C0000220704701207047D0F8B8020021017338
:1030D0000846704770B50446812100F0CDF8002500
:1030E000E562D4F8B80218B100F02DFCC4F8B8526B
:1030F000002070BD0A210180004870471C0100209B
:103100002221018000487047A40000202221018074
:1031100000487047C8000020222101800048704705
:10312000EC00002010B5044604230322812100F0A6
:1031300094F90120E062102000F006FCC4F8B80207
:1031400018B100210173084610BD022010BD10B552
:10315000134690F89C42D0F8B822032C07D1147B78
:103160002CB9012414730A46812100F01DFA0020B5
:1031700010BD000038B503460022D0F8B802ADF803
:10318000002014460A7812F0600216D0202A4AD194
:103190004A78022A0ED0032A06D00A2A06D00B2A21
:1031A00041D18978016042E001222BE04988090A77
:1031B00041603CE00122011D25E04A7832B1062A37
:1031C0000BD00A2A23D00B2A2DD128E093F89C0299
:1031D000032828D10222694615E048882222B2EB52
:1031E000102F05D1CA884A2A00D94A22124809E07C
:1031F0002122B2EB102F16D10F48CA881838092A9D
:1032000000D9092201461846FFF72DFE0FE093F87A
:103210009C22032A07D1012200F10801F3E793F869
:103220009C22032A05D01846FFF707FE02242046F9
:1032300038BD89788160FAE72801002010B580B197
:10324000D0F8B43213B10023C0F8B43209B1C0F8D9
:10325000B012012180F89C12027000F0BBF800202F
:1032600010BD022010BD10B5D0F8C002FDF74DFC16
:10327000BDE81040FFF71CBF10B5D0F8C002FDF745
:103280001FFCBDE81040FFF713BF2DE9F0411746C2
:10329000044651B1D4F8B40242691AB194F89C02C0
:1032A000032851D00220BDE8F081D4F894320025E3
:1032B00004F11400022B03D0042B3AD0C3B33CE03A
:1032C000D0E903639E4207D9F11AC1608AB2394638
:1032D0002046FFF7AAFD12E08068B0FBF3F103FB84
:1032E000110199B9984211D3D4F8981288420DD29D
:1032F000002211462046FFF798FDC4F8985200239B
:103300001A461946204600F0B4F816E0D4F8B40284
:10331000C16829B194F89C02032801D1204688474E
:103320008021204600F025F92046FFF791FD04E0BA
:10333000FFE78021204600F01CF994F8A002012844
:1033400004D184F8A05201E0204690470020AAE76B
:1033500070B51546044649B1D4F8B40282691AB171
:1033600094F89C02032830D0022070BDD4F8941247
:1033700004F5AA70032902D005291ED027E0D0E960
:1033800003218A420BD9531AC3600846834200D3F3
:1033900003469AB229462046FFF73FFD17E0D4F8CE
:1033A000B402016929B194F89C02032801D1204696
:1033B00088472046FFF764FD09E000200146C4F875
:1033C0009402204600F0D5F801E020469047002006
:1033D00070BD000010B517490446C1F8D402C0F80A
:1033E000C01215480860082008710220887100206A
:1033F0008872C87208730846FDF7F0FE08B1FCF742
:1034000042FF0022D4F8C0021823114604F530749C
:10341000FDF724FB5823002280212068FDF71EFBC6
:103420004FF48073002281212068FDF717FB0020F4
:1034300010BD000050070020005C00400A0601F0AB
:103440007F01D0F8C00201EB810100EBC10001D582
:10345000807C704790F85201704710B51C461346A7
:10346000D0F8C0022246FDF78CFDBDE81040FFF702
:103470001FBE10B5D0F8C002FDF7AFFDBDE810408B
:10348000FFF716BE70B50022044640231146FFF731
:10349000E4FF40260125C4F8646133460022802100
:1034A0002046C4F85851FFF7D8FF6662A56184F83A
:1034B0009C520020C4F894026060C4F8A402D4F8BE
:1034C000B80228B1D4F8B4020021426820469047DF
:1034D000002070BD90F89C12042903D190F89D1231
:1034E00080F89C120020704710B590F89C120329B8
:1034F00004D1D0F8B412C96901B18847002010BDC9
:1035000001740020704710B5D0F8C002FDF7FDFE31
:10351000BDE81040FFF7CCBD70B5044600F52A7039
:10352000054600F04AF80120C4F89402B4F8AE024F
:10353000C4F8980294F8A80210F01F010AD00129DB
:103540000DD0022910D000F08001204600F011F8C3
:10355000002070BD2946204600F09DF8F8E7294676
:10356000204600F0C9F9F3E72946204600F01CF98F
:10357000EEE710B5D0F8C002FDF746FDBDE81040FB
:10358000FFF796BD10B5D0F8C002FDF7D8FEBDE834
:103590001040FFF78DBD90F89C1280F89D12042119
:1035A00080F89C120020704710B5D0F8C002FDF7DB
:1035B00063FDBDE81040FFF77BBD0A7802704A78D2
:1035C00042708A78CB7802EB032242800A794B79E9
:1035D00002EB032282808A79C97902EB0121C18042
:1035E00070470246002011B1C2F8B41270470220A1
:1035F000704710B5D0F8B42202241AB1126890476F
:1036000000B90024204610BD70B50E461E4D8978C5
:1036100004462970012931D894F89C0202280BD065
:1036200003280FD031462046FFF707FC29782046B3
:10363000BDE87040FFF7EABBD9B10320616084F8B0
:103640009C0209E071B16068884212D0C1B2204684
:10365000FFF7DCFB297861602046FFF7CAFF0228EC
:103660000CD006E0022084F89C0220466160FFF73F
:10367000CDFB2046BDE87040FFF702BC3146204636
:10368000BDE87040FFF7D9BB6800002010B5FFF718
:1036900079FF002010BD2DE9F0410A78002612F0D4
:1036A000600208D0202A01D0402A70D1D0F8B4227C
:1036B000926890476DE04B78002201250A2B66D274
:1036C000DFE803F0405D6557650805652C29FFF7C5
:1036D00057FC5EE004468888D8B9C888C8B94888CD
:1036E000802816D200F07F0794F89C02032810D09F
:1036F00084F89E7239462046FFF705FF2046FFF703
:10370000BFFB1FB1022084F89C0242E084F89C5267
:103710003FE020463BE0FFF777FF3AE0CB88012B04
:1037200035D190F89C32012B04D0022B02D0032B10
:103730002DD104E08260012200F1080116E001228F
:10374000011D13E090F89C22012A03D0022A01D027
:10375000032A1CD1CA88022A19D1C560D0F8A41244
:1037600009B10321C160022200F10C01FFF77BFBCC
:103770000FE0498801290CD1C0F8A45211E090F85B
:103780009C32012B08D0022B06D0032B04D0FFF76C
:1037900054FB3046BDE8F08149880129F9D1C0F8D1
:1037A000A422FFF76DFBF4E72DE9F0410A46044639
:1037B00010780027097910F060030AD0202B01D07F
:1037C000402B50D1D4F8B402114683682046984764
:1037D0008FE0C0F34110012806D05078D0B3012803
:1037E0002AD003283FD107E0D4F8B40211468368F9
:1037F0002046BDE8F041184794F89C02022802D008
:10380000032872D10AE071B380296ED02046FFF7F9
:10381000B0FE80212046FFF7ACFE6AE0508838B940
:1038200031B1802904D0D08810B92046FFF7A1FE1D
:103830002046FFF725FB5CE094F89C020228E2D0CA
:10384000032852D1508898BB4806F1D02046FFF794
:103850000AFDEDE7FFE794F89C020026022803D05A
:10386000032842D112E040E009B180293DD1080689
:1038700001F07F0000EB800004EB800101D51431E2
:1038800001E001F5AA7102220E602AE0080601F0AB
:103890000F0000EB800004EB80000AD5806920B3A4
:1038A00001F07F0000EB800004EB800514350BE095
:1038B0001FE0D0F85801C0B101F07F0000EB80009C
:1038C00004EB800505F5AA7541B1802906D0204694
:1038D000FFF7B4FD10B10120286000E02E60022245
:1038E00029462046FFF7BFFA03E011462046FFF7BE
:1038F000A4FA3846BDE8F08170B5054608780C4654
:1039000010F0600003D0202801D0402816D195F88F
:103910009C02012803D0022801D003280ED120796F
:1039200001280BD8D5F8B402826828469047E18870
:10393000014306D12846FFF7A3FA02E02846FFF725
:103940007CFA002070BD7047004870473C0700209B
:103950002DE9F0470C78002630F8243048F68F1215
:103960001340CA78002A78D0012A7CD0022A02D0DB
:10397000032A75D0012648F28002134320F8243030
:103980000D7830F8253048F68F7423402B431343CD
:1039900020F825300D7B48F2C00948F6BF734CF281
:1039A000800A4BF68F77EDB3CD7891F800C0022DE9
:1039B00030F82C507DD048F68F6805EA080515438D
:1039C00020F82C50B0F8505091F800C0054405EB99
:1039D0000C15B1F808C02CF0010CA5F800C4B0F823
:1039E000505091F800C0054405EB0C15B1F80AC021
:1039F0002CF0010CA5F808C44D78002D7ED00D7870
:103A000030F825C05FEA4C4C07D530F825C00CEAE9
:103A1000040C4CEA0A0C20F825C091F800C030F8DC
:103A20002C5000E022E06D0606D530F82C502540E1
:103A300045EA090520F82C50CC780D78012C30F897
:103A4000254004EA03047CD084F02003134320F8CB
:103A50002530C1E001E006E002E043F400738AE7AC
:103A600043F4C06387E743F4806384E74D784DB344
:103A7000B0F850500F78054405EB0715CF8827F0B4
:103A80000107A5F800740F7830F827506D0606D5A9
:103A900030F82750254045EA090520F82750CC7812
:103AA000012C07D00C7830F82410194081F0200147
:103AB00004E064E00C7830F824101940114320F839
:103AC000241090E0B0F850300D78034403EB051358
:103AD000CD8825F00105A3F80854B0F850300D78D2
:103AE000034403EB0513B3F80C54C5F30905A3F81D
:103AF0000C540D6903F20C433E2D00E045E00BD958
:103B00004FEA551CED0601D1ACF1010C1D884FF4B4
:103B1000004848EA8C2C0BE035B34FEA550CED0712
:103B200001D00CF1010C1D884FF6FF7808EA8C2CAF
:103B300045EA0C051D800D7830F825305B0408D56A
:103B400000E046E030F82530234043EA0A0320F83D
:103B50002530097861B130F821303B4083F40053BF
:103B6000134320F821303EE01D8845F40045E1E78D
:103B70000188394081F440511143018033E02540F0
:103B800048F2801845EA08051AE791F800C030F8B5
:103B90002C506D0406D530F82C50254045EA0A0516
:103BA00020F82C5091F800C030F82C506D0606D546
:103BB00030F82C50254045EA090520F82C500D78A6
:103BC00030F825403C4084F44054144320F825400C
:103BD00070E7144320F825400B7830F82310394063
:103BE000114320F823103046BDE8F08700207047CD
:103BF0002DE9F04391F80C804F780A7848F6BF7CA5
:103C00004BF68F7948F2800348F2C0054CF28006EB
:103C100048F68F74B8F1000F28D0002F30F82270CA
:103C20004FEA474748D0002F05DA30F82270274086
:103C3000374320F822700A7830F822707F0605D5C5
:103C400030F8227027402F4320F822700D7830F88A
:103C500025202240324320F825200C7830F82420FB
:103C600002EA0C021A4320F824201AE07FB130F84F
:103C70002260760605D530F8226026402E4320F8D3
:103C800022600A7830F8221001EA0C010EE030F8C8
:103C900022506D0405D530F822502540354320F8D8
:103CA00022500A7830F8221001EA0901194320F85D
:103CB00022100020BDE8F083002F05DA30F82270D2
:103CC0002740374320F822700A7830F822607606C1
:103CD00005D530F8226026402E4320F822600E7869
:103CE00030F8262022402A4320F826200C7830F88D
:103CF000242002EA09021A4320F82420C1E7002008
:103D0000704700207047012120F8401F00210180EA
:103D1000818001820846704730F8401F21F43F41FE
:103D20000180002070470020704730B50A7BB2BB8D
:103D30004A7848F68F7548F28004C2B10B7830F8A3
:103D40002320520607D530F823202A4048F2C00528
:103D50002A4320F82320CA78012A20D00A7830F894
:103D6000221048F6BF73194081F0200114E00A7850
:103D700030F822305B0407D530F822302B404CF26B
:103D800080052B4320F822300A7830F822104BF6B9
:103D90008F73194081F44051214320F822100020F4
:103DA00030BD10B54A780978002A48F2800330F80F
:103DB000212005D048F6BF74224082F0100204E0B2
:103DC0004BF68F74224082F480521A4320F821204F
:103DD000002010BD2DE9F0470D464B78097B0446C5
:103DE0004FF0000948F68F7248F2800A4FF40047FE
:103DF0004FF6FF78012B09D000296FD0E878022810
:103E00006DD001286CD00120BDE8F087AE6928692B
:103E1000864200D9064691B1E97802291ED0286A67
:103E2000801B2862287834F820104906B4F8501016
:103E3000214401EB001073D5A0F80C6416E1B3B275
:103E4000EA882046696900F067FAB4F850002978DA
:103E5000204400EB0110A0F804640DE1296A8142BE
:103E600077D9297834F82100104048F280121043A5
:103E700024F82100286A801B2862287834F8201052
:103E80004906697871D511B101292AD030E0B4F81A
:103E90005010214401EB0010B0F80C14C1F30901DB
:103EA000A0F80C1400F20C403E2E07D97109F2065E
:103EB00000D1491E028847EA812107E04EB171080E
:103EC000F20700D0491C028808EA81210A430280D7
:103ED0000EE0018841F40041018009E0F1E020E1B9
:103EE00095E1B4F85020111901EB0010A0F80C6412
:103EF0006A89B3B22046696900F00EFA68693044F5
:103F000068612969286A884202D9801B286202E018
:103F10000646C5F82090687818B101282BD032E009
:103F20002FE0B4F850002978204400EB0110B0F8DD
:103F30000414C1F30901A0F8041400F204403E2E59
:103F400008D97109F20600D1491E028847EA812189
:103F500008E0A1E056B17108F20700D0491C0288C0
:103F600008EA81210A4302800DE00EE0018841F455
:103F70000041018007E0B4F850002978204400EBAC
:103F80000110A0F804642A8971E011B1012927D039
:103F90002DE0B4F85010214401EB0010B0F80414E7
:103FA000C1F30901A0F8041400F204403E2E07D921
:103FB0007109F20600D1491E028847EA812107E013
:103FC0004EB17108F20700D0491C028808EA81212D
:103FD0000A4302800BE0018841F40041018006E0C1
:103FE000B4F85010214401EB0010A0F804642A89B1
:103FF000B3B22046696900F08FF96869304468619E
:104000002969286A884202D9801B286202E0064694
:10401000C5F82090687810B1012836D026E0B4F8B1
:1040200050002978204400EB0110B0F80C14C1F3C3
:104030000901A0F80C1400F20C403E2E07D97109BA
:10404000F20600D1491E028847EA812107E04EB1FD
:104050007108F20700D0491C028808EA81210A434E
:10406000028003E0018841F4004101806A89B3B213
:104070002046696900F050F9297834F8210048F6A3
:10408000BF72104080F030000FE1B4F850100819F2
:10409000297800EB0110CFE62A7834F8220048F6A0
:1040A0008F63184040EA0A0024F82200B4F8500058
:1040B0002A78204400EB02108BB2A0F804342A893D
:1040C000D6E7A9692869814202D9091AA96102E0E3
:1040D0000846C5F81890B4F850102A78214401EB2E
:1040E0000211B1F80C24C2F30902A1F80C2401F268
:1040F0000C413E287DD94209C00600D1521E0888D5
:1041000047EA82220AE0088840F4004007E04208BB
:10411000C00700D0521C088808EA82221043088099
:10412000BBE033BBB4F850002978204400EB011009
:10413000B0F80414C1F30901A0F80414296900F2CD
:1041400004403E2907D94B09C90600D15B1E0188EE
:1041500047EA832307E041B14B08C90700D05B1C45
:10416000018808EA8323194302E0018841F40041F1
:104170000180687810B1012828D030E0B4F85000F0
:104180002978204400EB0110B0F80C14C1F30901A8
:10419000A0F80C14296900F20C403E2907D94B09FC
:1041A000C90600D15B1E018847EA832307E041B1BD
:1041B0004B08C90700D05B1C018808EA8323194318
:1041C00002E0018841F40041018008E0B4F8501099
:1041D0000819297800EB0110298AA0F80C14E86965
:1041E000C0B3297834F82100430401D5430605D42F
:1041F00000E046E044F2400318424ED134F821007A
:10420000104048F2C002104324F8210045E0A9699B
:104210002869814202D9091AA96102E00846C5F855
:10422000189013BBB4F850102A78214401EB021106
:10423000B1F80424C2F30902A1F8042401F20441F4
:104240003E2808D94209C30600D1521E0B8847EA0E
:10425000822208E021E078B14208C30700D0521C56
:104260000B8808EA822213430B80697800293FF407
:104270002EAF012909D010E00A8842F400420A80DA
:10428000F3E700287FF443AF3DE7B4F8502011195D
:104290002A7801EB0211A1F80C04297834F82100E6
:1042A0004BF68F72104080F4405040EA0A0024F828
:1042B00021000020A8E50021A0F844104FF43F4160
:1042C000A0F84010002070470148FCF7EDBE000048
:1042D00050070020B0F844007047000010B500EB14
:1042E00042005C0800F5806009D000BF30F8042B64
:1042F00001F8012B120A01F8012B641EF6D1DA072E
:1043000001D00088087010BD0020704711B98021CD
:10431000A0F84C100020704710B55B1C00EB420069
:104320005B0800F5806009D011F8012B11F8014BF2
:1043300042EA042220F8042B5B1EF5D110BDFEE7F3
:10434000014A024900F023B8B1430008740100207B
:104350000907090E002804DB00F1E02080F80014B2
:10436000704700F00F0000F1E02080F8141D704746
:1043700002E008C8121F08C1002AFAD1704770472E
:10438000002001E001C1121F002AFBD170472DE976
:10439000F04116460F460446002503E03946B04773
:1043A000641C6D1C20780028F8D12846BDE8F081F7
:1043B00038B504468DF80000022301226946024800
:1043C000FDF78FFE204638BD3002002000B502798F
:1043D0007AB1012A04D0022A05D0042A0CD105E0C2
:1043E000FBF72CFF08E0FBF735FF05E0FBF73EFF8E
:1043F00002E00349002008700148C01E027000BDA1
:10440000030000208AB0FCF799FAFEF794FBFDF751
:1044100023FFFDF7C1FFFDF7D3FEFDF7F7FEFDF724
:104420009FFF19A0FFF78CFFFDF776FF4FF47A741A
:1044300005E017A0FFF784FF2046FCF761F9FDF7C0
:10444000F7FF0028F5D11AA0FFF77AFFFEF716F85C
:104450001FA0FFF775FF234E00244FF480756846B8
:10446000FEF780F858B929463046FCF74BFA8DF82C
:1044700020406846FFF7AAFF6846FDF7C1FF0A2003
:10448000FCF73EF9EBE70000686168610D0A000087
:10449000D3B2BCFEB2E9D1B0B2BBB5BD4E524632CA
:1044A000344C3031CEDECFDFC4A3BFE90D0A0000AB
:1044B0004E524632344C3031CEDECFDFC4A3BFE99A
:1044C000D3B2BCFEC1ACBDD3D5FDB3A30D0A000071
:1044D000BDF8C8EBCAFDBEDDBDD3CAD5C4A3CABDF5
:1044E0000D0A0000000C0140344310100134431049
:1044F0001001010202030405060708090A0B0C0D4E
:104500000E0F101000000000000000000102030464
:104510000607080900000000010203043C450008EA
:104520000000002078010000700100081446000817
:1045300078010020B00C0000804300088113B92EE0
:104540001B08E9041AF504131D2F1B0849041A99C6
:104550000C1AC50417040309041201320216408321
:10456000042B57260201020301031A1A03191F1113
:10457000821053127A1325311408D5301B087508A0
:10458000811AC91001101A0D201A01041A19041AEF
:10459000F520140902221301011DE0320904591407
:1045A00003010215092111011401224A1607058190
:1045B0000304220A091F240A210724294869123109
:1045C0004B0A06F429CC100A05010902A1010901D0
:1045D000A1100805091901290315180F25019503D4
:1045E0007501810295017505810120281730093177
:1045F00009381581257F750895038106C0093C059A
:10460000FF090129600E75019502B1227506950119
:04461000B101C00034
:04000005080000ED02
:00000001FF
