:020000040800F2
:100000004808002005010008333300087128000863
:1000100031330008BD090008213F0008000000003E
:10002000000000000000000000000000113A00087D
:10003000BF09000800000000B1380008133A0008AA
:100040001F0100081F0100081F0100081F01000810
:100050001F0100081F0100081F0100081F01000800
:100060001F0100081F0100081F0100081F010008F0
:100070001F0100081F0100081F0100081F010008E0
:100080001F0100081F0100081F0100081F010008D0
:100090001F0100081F0100081F0100081F010008C0
:1000A0001F0100081F0100081F0100081F010008B0
:1000B000793A00081F0100081F0100081F0100080D
:1000C0001F0100081F0100081F0100081F01000890
:1000D000B5380008153F00081F0100081F0100087F
:1000E0001F0100081F0100081F010008DFF810D0E1
:1000F00000F052FC0048004731530008AFF3008085
:10010000480800200648804706480047FEE7FEE70B
:10011000FEE7FEE7FEE7FEE7FEE7FEE7FEE7FEE7B7
:10012000753A0008ED000008202A04DB203A21FA85
:1001300002F00021704721FA02F3D040C2F1200200
:10014000914008431946704740EA01039B0703D0DA
:1001500009E008C9121F08C0042AFAD203E011F806
:10016000013B00F8013B521EF9D27047D2B201E0C8
:1001700000F8012B491EFBD270470022F6E710B5AC
:1001800013460A4604461946FFF7F0FF204610BD05
:10019000F0B480EA0102D40F4200B2EB410F02D268
:1001A0000246084611464A0042D0C30DDDB2C1F3F3
:1001B000C752AD1A202D35DAC1F3160141F4000201
:1001C00004B15242C5F1200602FA06F12A41104458
:1001D000B3EBD05F23D0C4B1012DA0EBC35009DC39
:1001E000F0BC4FF0004202EAC352DBB200F500005F
:1001F00000F0D1BA400000F1807000EBC350A0F1D4
:10020000807040EAD170490009E0490841EAC071B4
:10021000A0EBC35000F50000400800EBC350F0BC59
:1002200000F0B0BA6142012202EB4101001BF6E787
:10023000F0BC704781F00041AAE780F00040A7E7DA
:1002400080EA010210B502F00043400022D04A00CB
:100250001FD0010E01EB1261C0F35600C2F356022B
:1002600040F4000042F40002A0FB022000047F39A9
:10027000140400D0401C50EA124001D44000491E32
:10028000C2B20C0604EBD010401C4008802A02D0F9
:1002900003E0002010BD20F00100002900DA00205A
:1002A000184310BD30B480EA010202F0004530F07E
:1002B000004221F0004013D090B1C30DD40DC2F321
:1002C0001601C0F31600E41A41F4000140F40002E4
:1002D0007D34914201D3641C00E04900002C02DA15
:1002E00030BC002070474FF400000023914201D33E
:1002F000891A034340084FEA4101F7D151B19142B5
:1003000002D14FF0004105E002D24FF0010101E0BF
:100310006FF0010103EBC450284430BC00F032BA46
:10032000420005D0C0F3C7525242914201DC002086
:10033000704700EBC15070472DE9FE4F804681EABF
:100340000300C00F0C46009021F0004123F000454F
:10035000B8EB0200A94105D24046214690461C4612
:100360000B46024623F00040104347D0270DC7F349
:100370000A00C3F30A510290401A019040286BDA38
:10038000C3F3130040F4801B0098924620B1002371
:10039000D2EB030A63EB0B0B01985946C0F1400204
:1003A000504600F0CEF906460D4650465946019A91
:1003B00000F0D6F910EB08006141002487EA1152E1
:1003C00084EAE7731A4340D0009A62B3019A012A83
:1003D0004FEA075215DC001B61EB02014FF00042AF
:1003E00002EA0752CDE90042001C41F58011324675
:1003F0002B4600F05AFA03B0BDE8F08F4046214684
:10040000F9E7001B61EB0201001C41F580130018A5
:100410005B412018A2F5001747EB030140EAD570B5
:10042000B6196D4111E06D084FEA360645EAC07510
:100430004FEA0752001B61EB0201001C41F58011DD
:1004400049084FEA30000019514132462B4603B0AB
:10045000BDE8F04F00F01ABA0098012240000023D6
:10046000D0EB020263EBE073009821464FEAE074A0
:10047000B8EB000061EB0401E9E783F000435BE7C0
:1004800081F0004158E72DE9FE4F81EA030404F0B2
:10049000004421F0004100944FF0000B23F0004392
:1004A00050EA01045ED052EA03045BD0C3F30A545D
:1004B000C1F30A552C44A4F2F3340194A0FB025476
:1004C000C1F3130141F48011C3F3130343F4801308
:1004D00001FB024400FB034E840A970A44EA81545C
:1004E00047EA8357A4FB076802958D0A05FB078539
:1004F0004FEA932C04FB0C542705029D4FEA065843
:1005000047EA1637B5EB08056EEB070C870E920E1F
:1005100047EA811742EA8312A7FB0201B6EB0B01FF
:1005200064EB00042B0D43EA0C335E1844EB1C50C3
:10053000DA465146E7FB0201C5F313044FEA0B33D9
:1005400043EA14534FEA0432019C43EA0603A4F140
:100550000C040294009CCDE900B400F0A6F903B0AD
:10056000BDE8F08F00200146F9E72DE9F04D81EA62
:10057000030404F0004B21F0004514464FF0000A3C
:1005800023F0004150EA050220D054EA01021DD0B8
:10059000C5F30A570246C5F31303C1F31300C1F3B1
:1005A0000A5640F4801543F48013A7EB0608101B8D
:1005B000D64608F2FD3873EB050002D308F10108B6
:1005C00001E092185B41B8F1000F03DA0020014608
:1005D000BDE8F08D00204FF48011064684460EE001
:1005E000171B73EB050705D3121B63EB05030643CB
:1005F0004CEA010C49084FEA300092185B4150EA7E
:100600000107EDD152EA030012D082EA040083EA26
:100610000501084305D0101BAB4106D2012200237F
:1006200006E000224FF0004302E06FF00102531099
:100630001AEB06004CEB085110EB0A0041EB0B01E2
:10064000BDE8F04D00F022B9C10F80EAE070084427
:10065000CA079623002100F09EB896230022114677
:1006600000F099B80EB5C10F80EAE0700844CA07DF
:10067000002140F233438DE80E000A460B4600F09D
:1006800014F903B000BD00F0004220F00040C10D9D
:10069000C0F3160040F400007F2901DA0020704703
:1006A000962903DCC1F19601C84001E096398840E3
:1006B000002AF4D04042704700F0004230F0004081
:1006C0000AD0C10D01F56071C0F3160042EA015174
:1006D000C20840071143704700200146704701F0EF
:1006E000004330B421F0004150EA010206D00A0D67
:1006F000A2F56072C1F31301002A02DC30BC0020B5
:100700007047440F44EAC104C100E01830BC00EB5C
:10071000C25000F037B830B50B4601460020202209
:10072000012409E021FA02F59D4205D303FA02F5FE
:10073000491B04FA02F52844151EA2F10102F1DC5E
:1007400030BD202A04DB203A00FA02F10020704775
:100750009140C2F1200320FA03F3194390407047FF
:10076000202A06DBCB17203A41FA02F043EAE07375
:1007700006E041FA02F3D040C2F120029140084362
:10078000194670470029A8BF7047401C490008BFA0
:1007900020F00100704710B4B0FA80FC00FA0CF0B1
:1007A00050EA010404BF10BC704749B1CCF12004E9
:1007B00021FA04F411FA0CF118BF01212143084376
:1007C000A3EB0C01CB1D4FEA00614FEA102042BFA2
:1007D000002010BC704700EBC35010440029A4BF98
:1007E00010BC7047401C490008BF20F0010010BC3D
:1007F0007047F0B4002802DCF0BC00207047C0F362
:10080000C751C0F3160040F40000CA0701D14000F0
:10081000491E3F2202EB6105002211464FF40006FB
:1008200026FA01F31344D418844201D8001B1A4657
:100830004000491C1729F3DD5100814202D24FF0DC
:10084000FF3100E0002102EBC550F0BCFFF79ABF7A
:1008500010B541000CD0C0F3C751962908DC7E29A1
:1008600009DC06DB410204D000F0004040F07E507D
:1008700010BD002010BDC1F19604C4F1200100FAA2
:1008800001F1E040FFF77EFFA04010BD10B5141E3F
:1008900073F1000408DA401C41F1000192185B4139
:1008A0001A4301D120F0010010BD2DE9F04D924610
:1008B0009B4611B1B1FA81F202E0B0FA80F2203227
:1008C0009046FFF73EFF04460F4640EA0A0041EA21
:1008D0000B0153465A46084313D0114653EA010010
:1008E00019D0C8F140025046FFF71EFC05460E46DF
:1008F000504659464246FFF724FF084305D00120E1
:1009000004E020463946BDE8F08D0020054346EA64
:10091000E0762C4337430A986305E40AA0EB08000D
:100920000022FD0A44EA47540A3002D5002001465D
:10093000E9E7010510196941DDE908450019694138
:10094000BDE8F04DA2E710B500F0004420F00040F3
:10095000C20DC0F3160040F400007F2A07DA7D2A9A
:1009600000DA7D22763A00FA02F1002008E0962AA9
:1009700009DCA2F1760100FA01F1C2F19602D04041
:10098000FFF700FF01E0963A9040002C00D0404273
:1009900010BD002070470000064C074D06E0E068DF
:1009A00040F0010394E8070098471034AC42F6D3B6
:1009B000FFF7A0FBB8690008D8690008FEE7704798
:1009C00072B6FEE770B5134C104D114E2A463146F3
:1009D000606803F043FF2A463146A06803F03EFFFB
:1009E0002A463146E06803F039FF2A46314620693D
:1009F00003F034FF2A463146606903F02FFF2A4690
:100A00003146A069BDE8704003F028BF0000F04106
:100A1000000048433800002010B586B00446182274
:100A200006496846FFF790FB6946204600F02EF81D
:100A3000204600F005F806B010BD00006C6100080B
:100A400010B5104C00F1180C1ECC8CE81E000021D3
:100A50008162C1620122016380F834200A4A826304
:100A600080F8401041648164C1640165416581651D
:100A700080F85C1001664269426680F86810C0E93F
:100A80001B1210BD84610008000020412DE9F041D7
:100A9000044608782070486860608868264E0D46D5
:100AA00010F0FF4F30D02549FFF7CAFBA060E8687F
:100AB0004FF0FF3710F0FF4F4FF0804826D000F086
:100AC00043F805F0B3F93946FFF72AFC414604F034
:100AD0007BFEE060286910F0FF4F19D000F034F879
:100AE00005F0A4F93946FFF71BFC414604F06CFE03
:100AF00020616869606160662067686810F0FF4F78
:100B000008D0686930B107E03046CFE73046E0E70B
:100B10003046EDE7E660266194F8340008B9606875
:100B2000A06307486168FFF785FB0649FFF7BAFB3A
:100B3000E063BDE8F0810000FFFF7F7F48E17A3F7E
:100B400000002041000040400149FFF779BB000050
:100B500035FA8E3C10B590F821100022022905D0FC
:100B60000421816380F82020012010BD01680B68FA
:100B700023F00E030B6001680B6823F001030B6088
:100B800090F84030C46B012101FA03F3636080F8F0
:100B9000211080F82020104610BD000010B590F8FC
:100BA00021100024022903D00421816301243DE0A7
:100BB00001680A6822F00E020A6001680A6822F0E1
:100BC00001020A601A4A0168914201D1012121E023
:100BD000174A1432914201D110211BE0144A2832E5
:100BE000914201D1891515E0114A3C32914201D15F
:100BF00089140FE00E4A5032914202D14FF48031F5
:100C000008E00B4A6432914202D14FF4801101E0B6
:100C10004FF08071064A083A5160012180F8211096
:100C2000002180F82010416B01B18847204610BD9B
:100C30000800024070B5044600F010F90546601C3B
:100C400002D004480078044400F008F9401BA04298
:100C5000FAD370BDCC0000202DE9F84FDFF8B89131
:100C60000024A9F1040B23460F2709F1040AABF174
:100C7000040EC9E00125A5402A40AA427DD1674E55
:100C8000D1F804C0ACEB0608B44532D014DCBCF19A
:100C9000030F3AD009DCBCF1000F2AD0BCF1010FE0
:100CA0001CD0BCF1020F31D11DE0BCF1110F17D0E7
:100CB000BCF1120F2AD119E0B8F5881F19D006DC53
:100CC000B8F5803F15D0B8F5801F1FD111E0B8F5F9
:100CD000001F0ED0B8F5041F18D10AE0CB6815E04C
:100CE000CB681B1D12E0CB6808330FE0CB680C33D8
:100CF0000CE08B682BB1012B4FF0080303D045614A
:100D000004E0042302E0056100E00023FF2A01D88B
:100D1000064601E000F104064FEA840501D9A5F179
:100D20002005D6F8008007FA05FC28EA0C0803FA2B
:100D300005F548EA0508C6F800804D68ED0062D563
:100D4000374DAE6946F00106AE61AD6924F0030689
:100D500005F001050095334D06EB050CDCF8085055
:100D6000A607360F07FA06F825EA0805DFF8B88067
:100D7000404503D14FF0000817E044E0DFF8AC80B5
:100D8000404502D14FF001080FE0DFF8A480404554
:100D900002D14FF0020808E0DFF89880404502D108
:100DA0004FF0030801E04FF0040808FA06F848EA9B
:100DB0000508CCF808804D68D9F80060ED024D4672
:100DC00001D5164300E096432E604D68DAF80060C6
:100DD000AD02554601D5164300E096432E604D689E
:100DE000DBF80060AD035D4601D5164300E0964395
:100DF0002E604D68DEF80060ED03754601D51643A0
:100E000000E096432E60641C0D682A46E5407FF49E
:100E100031AFBDE8F88F0000080401400000111058
:100E2000001002400000014000080140000C014099
:100E300000100140001401408068084000D00120EB
:100E40007047C26821EA02030A4043EA0241016195
:100E500070470AB1016170470904FBE701488068E7
:100E600070470000CC00002070B5040025D094F835
:100E70003D00002520B984F83C50204600F07EFA61
:100E8000242084F83D002068016821F00101016000
:100E90002068016841F4004101602068016821F484
:100EA0000041016000F0C8FB4D4A6168914201D8E1
:100EB0004C4900E04C49884201D2012070BD4B49A9
:100EC0002368B0FBF1F15E6826F03F060E435E60DA
:100ED0006368934206D94FF4967359434FF47A737B
:100EE000B1FBF3F12368491C1E6A26F03F0631432B
:100EF00019626168914210D84900401EB0FBF1F2BE
:100F0000521CC2F30B02042A01D2042022E0B0FBDF
:100F1000F1F0401CC0F30B001CE0A268F2B301EB3F
:100F2000C10303EB0116431EB3FBF6F35B1C43F452
:100F300080431B0549D092B301EBC10202EB0111C2
:100F4000401EB0FBF1F0401CC0F30B0040F48040A9
:100F500040F400402168CA694CF6FF739A4310437D
:100F6000C861D4E9071001432068026822F0C0027A
:100F700011430160D4E9030101432068826848F20B
:100F8000FF339A4311438160D4E905010843216886
:100F9000CA6822F0FF021043C86001E00EE016E0CC
:100FA0002068016841F0010101602564202084F877
:100FB0003D00256384F83E50002070BD01EB4106E2
:100FC000431EB3FBF6F35B1CB3E70120C2E701EB62
:100FD0004101401EB0FBF1F0401CC0F30B00B7E72D
:100FE000A086010080841E0000093D0040420F00E1
:100FF0002DE9FF4F83B00025DDE910799A4693462D
:101000000446DDF848800095FFF728FF064694F86F
:101010003D0020287CD119230122884920460096D2
:1010200001F03CFD0028F5D194F83C0001286FD078
:10103000012084F83C0020680168C90703D10168D9
:1010400041F0010101602068016821F40061016044
:10105000222084F83D00402084F83E002564676229
:10106000A4F82A90608D20857548E062CDE900865D
:1010700053465A462046049901F012FC00287CD1C0
:10108000208DDFF8C091202768B1012814D00228F4
:10109000206801681ED041F48061016020684169C8
:1010A00080690090BCE02068416981690091016815
:1010B00041F400710160B3E02068016821F48061AF
:1010C000016072B62068416981690091016841F44C
:1010D00000710AE041F40061016072B62068416964
:1010E00081690091016821F48061016062B697E036
:1010F000032865D801280CD0022843464FF000028F
:101100004946204600960BD001F0C8FCA8BB0CE075
:1011100091E032464146204601F066FD68BB72E030
:1011200001F0BCFC48BB72B633E02068016821F4D2
:101130008061016072B620680069616A0870606A47
:10114000401C6062208D401E2085608D401E6085A1
:101150003D4846F2A8110068B0FBF1F0C0EBC000BA
:1011600000EB80000090401E009007D0206840698E
:10117000C04340070DD50098F5E727E044F8305FFD
:101180006773A573206940F02000206162B6257363
:101190001CE02068016841F400710160206800696A
:1011A000616A0870606A401C6062218D491E218559
:1011B000618D491E618562B621680969017026E06A
:1011C00032464146204601F00FFD18B1012007B01C
:1011D000BDE8F08F20680069616A0870606A401C91
:1011E0006062208D401E81B22185608D401E608529
:1011F00020684269D243520712D4032903D10168FF
:1012000021F48061016020680069616A0870606A89
:10121000401C6062208D401E2085608D401E6085D0
:10122000208D00287FF464AF84F83D7084F83E5030
:1012300084F83C50CBE70220C9E700000200100010
:101240000000FFFF04000100D80000202DE9FF4F3F
:1012500083B09A46DDE9119793460446DDF8408055
:10126000FFF7FCFD054694F83D0020287FD11923A7
:10127000012240492046009501F010FC002876D15B
:1012800094F83C00012872D0012084F83C002068CA
:101290000168C90703D1016841F0010101602068BC
:1012A000016821F400610160212084F83D004020A4
:1012B00084F83E0000262664C4F82480A4F82A900E
:1012C000608D20852C48E062CDE9007553465A4672
:1012D0002046049901F062FB70B930E02A46394695
:1012E000204601F0B9FC58B1206C042804D12068D4
:1012F000016841F400710160012007B0BDE8F08F82
:10130000606A216800780861606A401C6062218D13
:10131000491E89B22185628D521E628522685369F9
:10132000DB435B070BD469B100781061606A401C35
:101330006062208D401E2085608D401E6085208D5E
:101340000028CBD12A463946204601F07BFB0028F5
:10135000CAD154F83D0B016841F4007101602020AE
:1013600004F81E09E67766770020C6E7FFE702204B
:10137000C3E70000020010000000FFFF10B586B0B8
:101380000021009101910291039100681049884267
:101390001BD1104CA06940F00800A061A06969460B
:1013A00000F0080004904FF440600090122001907B
:1013B000032003900848FFF74FFCE06940F48000E9
:1013C000E061E06900F48000049006B010BD000008
:1013D0000058004000100240000C014002488168A3
:1013E0000278114481607047CC000020074810B596
:1013F000016841F010010160032000F075F80F2032
:1014000000F006F800F024F8002010BD0020024093
:1014100070B50D4D04464FF47A712878B1FBF0F0A9
:101420000A490968B1FBF0F000F0E2FC48B9102C61
:1014300007D200222146501E00F036F800206C60D2
:1014400070BD012070BD0000CC000020D80000203D
:101450000C4808B5816941F001018161816901F0A1
:1014600001010091C16941F08051C161C06900F082
:10147000805000900448416821F0E06141F0007123
:10148000416008BD0010024000000140002809DB57
:1014900000F01F02012191404009800000F1E0208E
:1014A000C0F8001170470000F0B40E4B1B680C46EA
:1014B000C3F30223C3F10705042D00D90425191D28
:1014C000072901D2002300E0DB1E012606FA05F100
:1014D000491E214099409E40761E16403143F0BC83
:1014E00002F043BD0CED00E0064900F00702086879
:1014F0004FF6FF03184040EA0220034A10430860F9
:10150000704700000CED00E00000FA052DE9F047FF
:101510000F46050061D0434E306800F00700B84226
:1015200009D2306820F0070038433060306800F09E
:101530000700B84251D128683B4C810712D54007BB
:1015400003D5606840F4E06060602878000703D548
:10155000606840F4605060606068A96820F0F00046
:10156000084360602878C00728D06868012810D038
:101570002168022810D0890700292EDA616821F03D
:10158000030101436160FFF769FC804641F288393D
:101590000DE021688903EFE78901EDE7FFF75EFCC5
:1015A000A0EB0801494502D90320BDE8F087606837
:1015B000696800F00C00B0EB810FEFD1306800F0EB
:1015C0000700B8420BD9306820F00700384330607C
:1015D000306800F00700B84201D00120E5E7287824
:1015E000400705D56068E96820F4E0600843606062
:1015F0002878000706D56068296920F4605040EA21
:10160000C100606000F038F86168084AC1F3031156
:10161000515CC8400649086006480068FFF7F8FEBC
:101620000020C2E70020024000100240406800088D
:10163000D8000020D000002004480549006849680F
:10164000044AC1F30221515CC8407047D800002011
:1016500000100240506800080448054900684968C5
:10166000044AC1F3C221515CC8407047D800002031
:1016700000100240506800080E4A51680E4801F000
:101680000C03042B11D0082B0FD10C48C1F383435A
:10169000C903C05C0AD55168084AC1F34041921E93
:1016A000515C054A5043B0FBF1F070470449484390
:1016B000704700000010024000127A0030680008F5
:1016C00000093D002DE9F84F040070D02078C04D8E
:1016D000C00749D06868C0F38100012807D0686856
:1016E000C0F38100022809D16868C00306D52868C4
:1016F000800339D560680028E7D035E06068B0F530
:10170000803F0BD010B1B0F5A02F11D0286820F485
:1017100080302860286820F4802002E0286840F4A7
:1017200080302860606890B1FFF798FB06460AE0B9
:10173000286840F480202860F0E700BFFFF78EFBA8
:10174000801B642873D828688003F7D50CE0FFF766
:1017500085FB064605E000BFFFF780FB801B642881
:10176000F0D828688003F7D420789A4E80074FF08D
:1017700001094FF0000839D5686810F00C0F07D048
:101780006868C0F38100022809D16868C00306D4E4
:101790002868800714D52069012808D110E0206945
:1017A000B0B1C6F80090FFF759FB074605E00AE123
:1017B000FFF754FBC01B0228C4D828688007F7D560
:1017C0002868616920F0F80040EAC10028600DE057
:1017D000C6F80080FFF742FB074604E0FFF73EFB38
:1017E000C01B022823D828688007F7D42078000778
:1017F0002CD57948A169D9B1C0F80090FFF72EFB2C
:10180000074604E0FFF72AFBC01B02280FD8686ACE
:101810008007F7D571484FF4FA510068B0FBF1F03A
:10182000009000BF0098411E0091FAD20EE080E0C7
:10183000C0F80080FFF712FB074604E0FFF70EFB3D
:10184000C01B022875D8686A8007F7D42078400743
:1018500060D5E8690027C00008D4E86940F08050EE
:10186000E861E869012700F0805000905C48016859
:10187000C90513D40168834641F480710160FFF704
:10188000EDFA824606E000BFFFF7E8FAA0EB0A0097
:1018900064284ED8DBF80000C005F5D5E0680128C3
:1018A0000AD008B1052813D0286A20F00100286268
:1018B000286A20F0040002E0286A40F00100286253
:1018C000E06841F2883B98B1FFF7C8FA82460BE026
:1018D000286A40F004002862EEE700BFFFF7BEFA76
:1018E000A0EB0A0159455AD8286A8007F6D50CE0C2
:1018F000FFF7B4FA824605E0FFF7B0FAA0EB0A0161
:1019000059454CD8286A8007F6D41FB1E86920F001
:101910008050E861E06988B36968C1F381010229F8
:1019200044D00228C6F8608004D0FFF797FA044636
:1019300038E034E0FFF792FA074604E0FFF78EFA4A
:10194000C01B02282BD828688001F7D4206AB0F584
:10195000803F05D16868A16820F4003008436860C2
:10196000D4E908010843696821F4741108436860E8
:10197000C6F86090FFF772FA044606E025E000BF63
:10198000FFF76CFA001B022809D828688001F7D5F8
:101990001BE000BFFFF762FA001B022802D90320F8
:1019A000BDE8F88F28688001F4D40EE00128F7D054
:1019B0006868226A00F48031914204D1616A00F4BF
:1019C0007010884201D00120EAE70020E8E700001B
:1019D000001002400000424280044242D800002031
:1019E000007000407047000038B504460068426847
:1019F0008168C9434B0606D5CB0704D1D3435B06A8
:101A000001D4216C05E08B0708D4D3431B0605D411
:101A1000616C01B02046BDE8304008478B0601D517
:101A20004B0646D4D3439B0643D44B060AD494F8C2
:101A30005130032B3ED0636D43F004036365C368EC
:101A400083680093890609D4616D41F001016165E5
:101A500081680091016821F040010160606D0028FB
:101A600027D02068416821F0E0014160012084F81E
:101A70005100900722D02068416821F003014160A5
:101A8000104DE06C40B14563E06CFFF787F818B18A
:101A9000606D40F040006065A06C002809D045638F
:101AA000A06CFFF77BF8002803D0606D40F0400089
:101AB000606538BDC1688068009038BD2046FFF77A
:101AC00091FF38BDF538000870B5040009D0606A90
:101AD000002540B125616561A56294F8510040B1CF
:101AE0000CE0012070BD6068B0F5827FF4D0E56144
:101AF000F2E784F85050204600F040F8022084F8C5
:101B000051002068016821F040010160A08821890E
:101B100000F4827001F404410843A18901F40061DA
:101B20000843217C01F002010843217D01F00101FD
:101B30000843218B01F400710843217F01F0380133
:101B4000084394F8201001F080010843218D01F42E
:101B50000051084321680860A069042101EA10408F
:101B6000216848602068C16921F40061C161656530
:101B7000012084F85100002070BD000030B585B010
:101B80000024009401940294039400681949884247
:101B90002DD11948C16941F48041C161C16901F485
:101BA00080410491816941F0080181618069134D90
:101BB00000F0080004904FF42040009002200190B3
:101BC0000320039069462846FFF746F84FF480400B
:101BD000CDE90004694628460294FFF73DF800224B
:101BE00011462420FFF760FC2420FFF74FFC05B0CE
:101BF00030BD00000038004000100240000C0140E1
:101C00002DE9FF4F81B01D46934604464FF0010970
:101C10000E9EFFF723F9074694F8510061680128EA
:101C200006D0B1F5827F3CD1A168C9BB042838D168
:101C30000298002871D0BBF1000FFBD0002DF9D025
:101C400094F8500001282CD04FF0010A84F850A0DD
:101C500094F85100042802D0052084F851004FF078
:101C60000008C4F85480C4F838B0E587A587029905
:101C70002163E586A586C4F84080C4F844802068C6
:101C80000168490603D4016841F040010160E06841
:101C9000B0F5006F606808D0F0B3012D49D081E045
:101CA000FFE7022005B0BDE8F08F08B1012D39D162
:101CB000206B21680088C860206B801C2063E08E48
:101CC000401EE0862EE02068816889070FD5E18EEE
:101CD00069B1B9F1010F0AD1216B0988C160206B8C
:101CE000801C2063E08E401EE0864FF000092068D3
:101CF0008168C9070CD0E18F51B1C068A16B088021
:101D0000A06B801CA063E08F401EE0874FF00109AC
:101D1000FFF7A4F8C01B01E00BE067E0B04201D37D
:101D2000701C50D1E08E0028CDD1E08F0028CAD1A0
:101D30003EE0206B216800780873206B401C206314
:101D4000E08E401EE0862DE02068816889070FD56F
:101D5000E18E69B1B9F1010F0AD1216B09780173E4
:101D6000206B401C2063E08E401EE0864FF000098F
:101D700020688168C9070CD0E18F51B1C068A16BA0
:101D80000870A06B401CA063E08F401EE0874FF0FE
:101D90000109FFF763F8C01BB04202D3701C01D0E9
:101DA00011E086B1E08E0028CED1E08F0028CBD1A3
:101DB0003A463146204601F0A5FD50B1202060652D
:101DC00084F8508012E084F851A084F850800320F9
:101DD00068E7A06818B92068C1688068009084F836
:101DE00051A084F85080606D0028F1D0012059E79F
:101DF00010B5401EB0F1807F01D3012010BD4FF01F
:101E0000E02460610F21601702F0AFF80020A061AC
:101E100007202061002010BD7047704710B590F872
:101E20003C20012A22D0012280F83C20CA688C681C
:101E300022F4407222434C6822F4806222430C68F0
:101E400022F4006222430C6922F4805222434C693E
:101E500022F400522243C969002322F480420A433B
:101E600001684A6480F83C30002010BD022010BD9B
:101E700070B590F83C20012A26D0012480F83C401F
:101E8000022280F83D2003685A689D6822F070069F
:101E90000A6832435A600D4B02689A4208D0B2F188
:101EA000804F05D00A4B9A4202D00A4B9A4204D185
:101EB000496825F080031943916080F83D40002176
:101EC00080F83C10084670BD022070BD002C014017
:101ED000000400400008004010B5040003D094F84E
:101EE0003D0010B107E0012010BD002084F83C0047
:101EF000204600F01FF8022084F83D00211D2068D4
:101F000001F0C0FD012084F8460084F83E0084F80A
:101F10003F0084F8400084F8410084F8420084F8CF
:101F2000430084F8440084F8450084F83D00002014
:101F300010BD000008B50068B0F1804F12D10A480A
:101F4000C16941F00101C161C069002200F00100D6
:101F5000009011461C20FFF7A7FABDE808401C209E
:101F6000FFF794BA08BD00000010024090F83D1041
:101F7000012901D001207047022180F83D1001683D
:101F8000CA6842F00102CA6000680B49884208D062
:101F9000B0F1804F05D00949884202D008498842F3
:101FA00004D1816801F00701062903D0016841F0DE
:101FB0000101016000207047002C01400004004036
:101FC0000008004070B5044690F83C000025012848
:101FD00017D0012684F83C60022084F83D00206878
:101FE000826822F0770222F47F42826008685028DB
:101FF00038D00DDC20284FD005DC90B3102811D14B
:102000004AE0022070BD302846D040280AD13BE08B
:1020100060282FD070280DD0B0F5805F03D0B0F5C8
:10202000005F12D0012584F83D60002084F83C0058
:10203000284670BDCB68D1E90121206801F06BFD15
:102040002068816841F0770109E0CB68D1E901217E
:10205000206801F060FD2068816841F48041816062
:10206000E1E719E0CA684968206801F009FE5021DB
:10207000206806E0CA684968206801F012FE602105
:10208000206801F052FDCEE7CA684968206801F077
:10209000F7FD40212068F4E7226801461046F0E78A
:1020A00070472DE9F04104460068C66805694FF0A5
:1020B0000007A90713D5B10711D5F91E0161012049
:1020C0002077206880698007204602D0FFF7E8FF6C
:1020D00004E000F0BBF8204600F06CF927776807B1
:1020E00016D5700714D521686FF00400086102202E
:1020F00020772068806910F4407F204602D0FFF7E7
:10210000CFFF04E000F0A2F8204600F053F9277753
:10211000280715D5300713D521686FF0080008612E
:10212000042020772068C0698007204602D0FFF78E
:10213000B7FF04E000F08AF8204600F03BF927776B
:10214000E80616D5F00614D521686FF01000086176
:10215000082020772068C06910F4407F204602D014
:10216000FFF79EFF04E000F071F8204600F022F92E
:102170002777E80708D0F00706D021686FF0010044
:102180000861204600F066F9280608D5300606D515
:1021900021686FF0800008612046FFF73DFE680669
:1021A00008D5700606D521686FF04000086120460A
:1021B00000F060F9A8060AD5B00608D521686FF0CE
:1021C000200008612046BDE8F041FFF726BEBDE8CB
:1021D000F081000000B585B00021009101910291CD
:1021E0000391154B0268154802219A420ED182696B
:1021F00042F0040282618069039100F004000490BF
:10220000C801CDE9000169460D4811E00D4B9A4225
:1022100010D1826942F0080282618069039100F066
:10222000080004904FF44070CDE90001694606486B
:10223000FEF712FD05B000BD002C01400010024069
:102240000008014000080040000C0140704770B5D4
:10225000044690F83C0000260D4601280FD00120CE
:1022600084F83C006AB1042A1DD0082A2FD00C2A19
:102270003FD00126002084F83C00304670BD02208B
:1022800070BD206801F05AFC2068816941F00801A6
:1022900081612068816921F0040181612068816980
:1022A0002A69114311E0206801F070FC20688169FF
:1022B00041F4006181612068816921F4806181615C
:1022C000206881692A6941EA02218161D2E7206898
:1022D00001F088FC2068C16941F00801C1612068F3
:1022E000C16921F00401C1612068C1692A691143F3
:1022F00011E0206801F0A2FC2068C16941F400618E
:10230000C1612068C16921F48061C1612068C1692F
:102310002A6941EA0221C161ACE710B5040003D08B
:1023200094F83D0010B107E0012010BD002084F8B2
:102330003C00204600F01EF8022084F83D00211DDC
:10234000206801F09FFB012084F8460084F83E00DD
:1023500084F83F0084F8400084F8410084F842008B
:1023600084F8430084F8440084F8450084F83D0074
:10237000002010BD08B50C4A01680C48914207D1F5
:10238000816941F400618161806900F4006009E0C5
:10239000074A914207D1C16941F00401C161C06996
:1023A00000F00400009008BD002C01400010024025
:1023B000000800407047000010B50446022249B1F1
:1023C00004290ED0082913D094F84100012816D012
:1023D000012010BD94F83E000128F9D184F83E2078
:1023E0000FE094F83F000128F2D184F83F2008E084
:1023F00094F840000128EBD184F8402001E084F8F3
:1024000041200122206801F079FB0F4920688842B1
:1024100003D1426C42F4004242642068884208D0F2
:10242000B0F1804F05D00949884202D0084988425E
:1024300004D1816801F00701062903D0016841F049
:1024400001010160002010BD002C0140000400408B
:102450000008004010B50068B0F1804F07D102F0CD
:1024600089FB03484068BDE8104000F07BBC10BD0C
:10247000000000207047704770470000F8B5016801
:1024800004460868CA684B6910F00F0F4FF000054A
:1024900059D003F0010602F49077374365D0C107A5
:1024A00005D0D10503D5616C41F00101616441079C
:1024B00005D5D90703D0616C41F002016164810741
:1024C00005D5D90703D0616C41F0040161640107AF
:1024D00007D502F02001314303D0616C41F00801BF
:1024E0006164616C00293AD0800604D5900602D55B
:1024F000204601F017FC20684069616CC0F3801031
:10250000090700D460B3204601F0E5FB206840696C
:10251000400621D52068143050E8001F21F040010A
:1025200040E80012002AF5D1E06BA8B16D49416383
:10253000E06BFEF733FB002811D0E06B416B01B07C
:10254000BDE8F040084783060FD593060DD5204619
:10255000BDE8F84001F0E6BB2046FFF78DFFF8BD6F
:102560002046FFF789FF6564F8BD266B2023012E06
:102570007CD1C6067AD5D60678D50868486800901A
:1025800048694FF00206400640D5E16B0868406894
:102590000004000CE8D0A28D8242E5D9E08588696C
:1025A00020282DD020680C3050E8001F21F48071C5
:1025B00040E80012002AF5D12068143050E8001FCE
:1025C00021F0010140E80012002AF5D12068143002
:1025D00050E8001F21F0400140E80012002AF5D128
:1025E00084F84230256320680C3050E8001F21F049
:1025F000100140E80012002AF5D1E06BFEF7AAFABC
:102600006663A08DE18D401A81B22AE0A08DE18D34
:10261000401A81B2E08D0028A6D00029A4D02268FB
:102620000C3252E8000F20F4907042E80007002FAF
:10263000F5D12068143050E8002F22F0010240E864
:102640000027002FF5D184F84230256320680C3034
:1026500050E8002F22F0100240E80023002BF5D1B3
:1026600066632046FFF707FFF8BDFFE705062BD599
:10267000150629D594F841002128F5D1A068B0F5B8
:10268000805F01D12069B0B1206A411C21622168BC
:1026900000784860E08C401E0004000CE084E3D128
:1026A0002068C16821F08001C1602068C16841F0E4
:1026B0004001C160D8E7206A0088C0F30800486084
:1026C000206A801C2062E5E74006CDD55006CBD5B8
:1026D000CA68204622F04002CA6084F8413000F007
:1026E000C6F8C1E7C73C000870B5040004D094F8F0
:1026F0004100002510B106E0012070BD84F8405073
:10270000204600F023F8242084F841002068C168A6
:1027100021F40051C160204601F066FB2068016988
:1027200021F4904101612068416921F02A01416151
:102730002068C16841F40051C1606564202084F8BC
:10274000410084F842006563002070BD30B585B05B
:10275000002400940194029403940068184988426C
:102760002CD11848816941F480418161816901F46B
:1027700080410491816941F0040181618069124DB9
:1027800000F0040004904FF40070009002200190CB
:102790000320039069462846FEF75EFA2815CDE926
:1027A0000004694628460294FEF756FA00221146B4
:1027B0002520FEF779FE2520FEF768FE05B030BD26
:1027C00000380140001002400008014070472DE928
:1027D000F843044690F84100984616460D462028D6
:1027E00002D00220BDE8F88385B17EB1002060648C
:1027F000212084F84100FEF731FBA6848146E6845F
:10280000A0682027B0F5805F02D003E00120E9E74F
:10281000206910B12E4600250EE000260CE0802134
:10282000204601F03DFBA8B9C6B116F8010B21689E
:102830004860E08C401EE084E08C4B464FF0000284
:10284000CDF800800028EAD14FF04001204601F089
:1028500027FB40B184F841700320C3E735F8020B31
:10286000C0F30800E3E784F841700020BAE770473E
:10287000FEE701684A69D24352050FD46FF48062C3
:102880004A61002140F8301F20224273817302699F
:1028900042F004020261017301207047002070477A
:1028A0002DE9F84F0446006889460B9D016898465B
:1028B000174641F4806101602068016841F480712D
:1028C000016000954FF0011B0022594620460A9BEB
:1028D00000F0E4F84FF4007A40B120680068C005C9
:1028E00001D5C4F840A00320BDE8F88F216809F0A5
:1028F000FE0008612B46284920460A9A00F016F986
:10290000F0BB20684169806900902A4620460A99F8
:1029100000F0A2F940B1206C04283AD12068016887
:1029200041F40071016034E0FEB2B8F1010F09D04A
:102930002168380A08612A4620460A9900F08CF975
:102940000028E8D1206806612A4620460A9900F04E
:1029500083F90028DFD12068016841F480710160AB
:1029600000950022594620460A9B00F097F800285F
:10297000B3D1216809F0FF0040F00100086100E0D8
:1029800007E02B46044920460A9A00F0CFF80028B9
:10299000AAD00120A8E70000020001002DE9F843B9
:1029A000044600680D46DDE908970168984616461A
:1029B00041F4807101604B4600224FF00111204626
:1029C000009700F06BF848B120680068C00502D598
:1029D0004FF4007020640320BDE8F883216805F0FF
:1029E000FE0008613B464A461549204600F09EF825
:1029F00088B920684169806900903A464946204676
:102A000000F02AF948B1206C042804D1206801683C
:102A100041F4007101600120DEE7F5B2B8F1010F69
:102A200009D02168300A08613A464946204600F03C
:102A300013F90028E7D1206805610020CCE70000E9
:102A40000200010070B516460D4604461EE0204601
:102A5000FFF70FFF08B1012070BD681C16D0FEF70C
:102A6000FDF9801BA84200D885B920684069C043A1
:102A700040070BD5002044F8300F20216173A0736C
:102A8000216941F0200121612073E4E72068406959
:102A9000C0434007DBD4002070BD00002DE9F047A3
:102AA000984617460D460446C1F30746DDF82090C8
:102AB0002AE000BFB8F1FF3F26D0FEF7CFF9A0EB28
:102AC0000901414502D8B8F1000F1DD12068012E3F
:102AD00016D0806925EA00000004000C12D0002006
:102AE000B84211D1002044F8300F20216173A07347
:102AF000216941F02001216120730120BDE8F087A8
:102B00004069E7E70120EBE72068012E0AD08069E1
:102B100025EA00000004000C06D00020B842C9D00D
:102B20000020EBE74069F3E70120F7E72DE9F047E4
:102B3000984616460D4604464FF000094FF0200A0D
:102B4000C1F3074723E020684069C043400515D41E
:102B50002068016841F40071016021686FF48060B1
:102B60004861C4F8309084F83DA084F83E90216C10
:102B700041F00401216484F83C9021E0701C06D0EF
:102B8000FEF76CF9A0EB0800B04203D816B1012F94
:102B90001FD021E02068012F15D0806925EA0000B0
:102BA0000004000C18D000BF44F8309F84F80DA03A
:102BB00084F80E90216941F02001216184F80C9085
:102BC0000120BDE8F087406925EA00000004000C00
:102BD000EAD12068406901E02068806925EA0000A8
:102BE0000004000CAFD1ECE72DE9F0410025904640
:102BF0000E460446202728E04069C043C0060CD496
:102C000054F8301B6FF01000486144F81059677792
:102C1000A577206A2062257714E0FEF71FF9A0EB64
:102C20000800B04200D886B920684069C043400619
:102C30000BD544F8305F6773A573206940F020001E
:102C4000206125730120BDE8F08120684169C943F6
:102C50004906D1D40020F6E770B516460D46044665
:102C60001EE02046FFF705FE08B1012070BD681C7C
:102C700016D0FEF7F3F8801BA84200D885B920686B
:102C80004069C04300060BD5002044F8300F2021D6
:102C90006173A073216941F0200121612073E4E791
:102CA00020684069C0430006DBD4002070BD0000EE
:102CB0002DE9F047294F4FF00109012801D187F88C
:102CC0000090002426463878DFF89480354670B1AD
:102CD00008214046FEF7B0F888B110214046FEF7C3
:102CE000ABF860B120214046FEF7A6F838B10821C4
:102CF00044464046FEF7A0F801281ED02BE00A20EB
:102D0000FDF798FF00203870082147464046FEF73F
:102D100093F800B9012410213846FEF78DF800B968
:102D2000012520213846FEF787F800B9012604EB7B
:102D3000450000EB8600BDE8F08710212046FEF735
:102D40007BF8012807D120212046FEF775F80128DD
:102D500001D187F800900020EDE70000B8000020C6
:102D6000000C01402DE9FC410546FDF76DFC3249A0
:102D7000FDF798FAFDF787FC304C0646334621698B
:102D8000A068CDE9000129462DA0626801F0CAF8CB
:102D9000A168002001290BD0002949D123692E4ABE
:102DA0002E49012B09D0022B0FD0032B20D116E086
:102DB000322195FBF1F6A060F0E7D2F800C0676819
:102DC000CCF834700F68F86306E0D1F800C067688B
:102DD000CCF83C70176878630F68386408E0D1F865
:102DE00000C06768CCF84070176878630F68F863B4
:102DF000322D05DA0F683864126850630968C863B9
:102E000062680121AA4201DB6560E1606268002A14
:102E100004DC5B1C23616060C4E9021020690328A4
:102E200000DD2161E0680028606803D0801B6060DD
:102E3000BDE8FC813044FAE700004842B8000020B9
:102E4000253564202535642025356420256420251A
:102E5000640D0A20000000009001002020020020E4
:102E60007CB514460D4606466A4606213B2000F016
:102E70007FF800280BD1BDF8001049BA3180BDF8A9
:102E8000021049BA2980BDF8041049BA21807CBDDE
:102E90007CB514460D4606466A460621432000F0DE
:102EA00067F800280BD1BDF8001049BA3180BDF891
:102EB000021049BA2980BDF8041049BA21807CBDAE
:102EC00010B51D48FDF7D0FF80216B2000F09AF867
:102ED0006420FDF7AFFE00216B2000F093F8032083
:102EE00000F05BF8002000F053F8C82000F072F802
:102EF0000021382000F086F800216A2000F082F8D6
:102F00000021232000F07EF88021372000F07AF89D
:102F1000752000F013F8682801D0012010BD0121B0
:102F20006B2000F06FF800216C2000F06BF832206D
:102F300000F050F8002010BDE40000201FB5002173
:102F40008DF80C1040F6FF73012203A98DE80E00E6
:102F500013460246D1210548FEF74AF80120FDF745
:102F600069FE9DF80C0004B010BD0000E4000020D4
:102F70000EB540F6FF730092CDE90113024601231E
:102F8000D1210248FEF734F800200EBDE4000020F5
:102F9000C006010E1C2000F035B8C006010E1B2033
:102FA00000F030B8BC2801D3012110E0622801D321
:102FB00002210CE02A2801D3032108E0142801D3C0
:102FC000042104E00A2801D3052100E006211A208B
:102FD00000F018B810B504464FF47A70844201D955
:102FE000044602E0042C00D20424B0FBF4F0401E9E
:102FF000C1B2192000F006F86008BDE81040FFF7E4
:10300000D1BF00001FB540F6FF738DF80C100122F0
:1030100003A98DE80E0013460246D0210448FEF7AE
:1030200015F90120FDF706FE04B0002010BD0000D8
:10303000E400002070B586B0002428480094019474
:1030400002940394816941F020018161816901F05A
:1030500020010491816941F004018161816901F0DD
:1030600004010491816941F00801816180691C4E6D
:1030700000F008000490002241F201013046FDF703
:10308000E8FE0122C2213046FDF7E3FE1020009049
:103090001448CDE9010469461348FDF7DDFD41F20E
:1030A00003000125CDE900050220CDE90240694673
:1030B0003046FDF7D1FD38208DE8310069463046B5
:1030C000FDF7CAFDC020CDE900050320CDE902408F
:1030D00069463046FDF7C0FD06B070BD00100240E5
:1030E000000C014000001110000801400D4810B50F
:1030F0000B4901600C49416000214FF4804281601E
:10310000C0E9031241618161C1610162FDF7ACFE5A
:10311000002803D0BDE81040FDF752BC10BD0000F0
:1031200000580040E4000020A0860100104810B5BF
:103130000E4901604FF482714160002181600122DB
:10314000C160C0E90412520282610822C0E907216D
:10315000416281620A21C162FEF7B6FC002803D0F9
:10316000BDE81040FDF72CBC10BD00000038004049
:103170003801002010B592B000240F941C2108A83B
:103180001094FCF7FAFF20216846FCF7F6FF204870
:103190001E4901604721C0E9011440F2E731C0E94E
:1031A000031444618461FFF7B8F808B1FDF708FC27
:1031B0000F940FA916481094FEF75AFE08B1FDF7B8
:1031C000FFFB6020CDE908040A940B940C940D9445
:1031D000002208A90E480E94FFF739F808B1FDF750
:1031E000EFFB00944FF40050CDE9044002940194A9
:1031F0000394694606480794FEF710FE08B1FDF7F0
:10320000DFFB0348FEF7E6FF12B010BD002C0140C3
:103210009001002010B586B0002416480094019457
:103220000294039404944FF0804105940160472177
:10323000C0E9011442F20F71C0E903148461FEF782
:103240004BFE08B1FDF7BCFB4FF48050009069467F
:103250000848FEF7B7FE08B1FDF7B2FB049404A9D5
:1032600004480594FEF704FE002801D0FDF7A8FBF2
:1032700006B010BDD801002010B58AB00024079414
:103280001C2168460894FCF778FF1A481849016029
:103290004721C0E9011440F2E731C0E90314846119
:1032A000FFF73BF808B1FDF78BFB079407A911481E
:1032B0000894FEF7DDFD08B1FDF782FB6020CDE943
:1032C00000040294082269460A480494FEF7BFFFEE
:1032D00008B1FDF775FB0C2269460648FEF7B7FFFB
:1032E00008B1FDF76DFB0348FEF774FF0AB010BD8F
:1032F00000080040200200200C4810B50A49016077
:103300004FF4E1314160002181600C22C160C0E9CD
:1033100004128161C161FFF7E7F9002803D0BDE81D
:103320001040FDF74DBB10BD003801406802002081
:10333000FEE7FEE71CB510A1D1E90001CDE90001CF
:10334000082000F0BDFA05226946302000F0C8F8D8
:1033500005226946102000F013F8002069460A5C37
:10336000A52A03D1401CC0B20528F8D3052801D0F6
:1033700001201CBD00201CBDA5A5A5A5A500000021
:103380002DE9F041DFF8408015460F460446002243
:1033900002214046FDF75DFD21460C4800F028FB68
:1033A0000646002406E0FF21084800F021FB3855BE
:1033B000641CE4B2AC42F6D3012202214046FDF780
:1033C00048FD3046BDE8F081000C01403801002086
:1033D00070B50B4D0446002202212846FDF739FD49
:1033E0002146084800F004FBFF21064800F000FBDE
:1033F0000446012202212846FDF72BFD204670BD20
:10340000000C01403801002010B5184C00220121A9
:103410002046FDF71EFD05221549302000F060F81A
:1034200013490522491D2A2000F05AF801212120C4
:1034300000F080F80121222000F07CF8FF212420F8
:1034400000F078F82821252000F074F80F212620BC
:1034500000F070F80E21202000F06CF820460122C8
:10346000BDE810401146FDF7F4BC0000000C01401F
:103470002468000870B50446102000F021FA164DAB
:10348000002201212846FDF7E4FC20222146A0204D
:1034900000F026F8012211462846FDF7DAFC0F4C11
:1034A00010212046FDF7C8FC0028F9D10720FFF7BE
:1034B0008FFF04460146272000F03CF8E00605D5C2
:1034C000FF21E12000F036F8102070BDA00601D5E4
:1034D000202070BDFF2070BD000C0140000801409D
:1034E0002DE9F041DFF8448016460D4604460022DF
:1034F00002214046FDF7ADFC21460D4800F078FA68
:103500000746002407E000BF15F8011B084800F03B
:103510006FFA641CE4B2B442F6D3012202214046A1
:10352000FDF797FC3846BDE8F0810000000C014033
:103530003801002070B50C4D0E46044600220221D1
:103540002846FDF786FC2146084800F051FA04465B
:103550003146064800F04CFA012202212846FDF7C8
:1035600078FC204670BD0000000C014038010020AE
:1035700070B500240021204600F0C7F80025002087
:1035800000F085F96D1CEDB2802DF8D3641CE4B217
:10359000082CEFD370BD00002DE9F0410024144E3B
:1035A0000746802525FA04F23A4080213046FDF78F
:1035B00050FC012240213046FDF74BFC0022402107
:1035C0003046FDF746FC641CE4B2082CEAD3012225
:1035D00080213046FDF73DFC012240213046FDF7B9
:1035E00038FC3046BDE8F04100224021FDF731BCF7
:1035F000000C014010B50B4C012280212046FDF744
:1036000028FC012240212046FDF723FC00228021D6
:103610002046FDF71EFC20460022BDE81040402158
:10362000FDF717BC000C014010B5094C00228021A9
:103630002046FDF70EFC012240212046FDF709FC43
:1036400020460122BDE810408021FDF702BC0000A9
:10365000000C014010B500204FF47A720021491C83
:103660009142FCD3401C9042F8D3AE2000F0FEF80B
:10367000D52000F0FBF8802000F0F8F8A82000F03A
:10368000F5F83F2000F0F2F8D32000F0EFF800202A
:1036900000F0ECF8402000F0E9F8A12000F0E6F896
:1036A000C82000F0E3F8DA2000F0E0F8122000F083
:1036B000DDF8812000F0DAF8CF2000F0D7F8D9202B
:1036C00000F0D4F8F12000F0D1F8DB2000F0CEF8C3
:1036D000302000F0CBF8A42000F0C8F8A62000F0BD
:1036E000C5F88D2000F0C2F8142000F0BFF8AF201C
:1036F00000F0BCF8BDE81040FFF73ABF02460120D9
:1037000000E05043491EFCD2704710B50C4640F013
:10371000B00000F0ABF8102040EA141000F0A6F85A
:1037200004F00F00BDE8104000F0A0B82DE9F04112
:103730000746CE004000083E801E15464FF0FF3879
:10374000F1B2C0B2FFF7E1FF1148002400EB05150C
:103750002819A0F5805090F8000E00F098F8641C2D
:10376000E4B2082CF4D308EB4700F1B2C0B2FFF783
:10377000CCFF00242819A0F5805090F8080E00F026
:1037800086F8641CE4B2082CF4D3BDE8F081000094
:10379000946100082DE9FF5F0127DDF838B01E466F
:1037A00015468A4612F1FF4F04D22B220098FFF7EC
:1037B000BDFF05E02D220098FFF7B8FF85F000451A
:1037C00059460A20FFF79AFFFCF747FF2946FCF706
:1037D00037FDFCF758FF054634464FF00A082EE047
:1037E000A6EB0B00A04216D10AEB040909EB070077
:1037F000C1B22E220098FFF799FF0027311B0A2043
:10380000FFF77CFFB5FBF0F1B1FBF8F208FB1212F9
:1038100009F0FF010DE0311B0A20FFF76FFFB5FB38
:10382000F0F1B1FBF8F208FB12120AEB0400384485
:10383000C1B230320098FFF779FF641EE4B2002C69
:10384000CED1BDE8FF9F2DE9F04115460E46074653
:10385000002406E03019C1B23846FFF767FF641C48
:10386000E4B22A5D002AF5D1BDE8F08110B5044626
:10387000FFF7C0FE7820FFF78FFE0020FFF78CFED9
:103880002046FFF789FEBDE81040FFF7CDBE10B51A
:103890000446FFF7AFFE7820FFF77EFE4020FFF7DB
:1038A0007BFE2046FFF778FEBDE81040FFF7BCBE68
:1038B000704700000148FEF797B80000380100206B
:1038C0000B4910B50A68136823F0400313600A68B7
:1038D00013684FF6C774234013600A6813680343E4
:1038E00013600868016841F04001016010BD0000EC
:1038F0003801002010B5406A0021C187C186FEF75B
:1039000071F810BDF8B515460E460B4600920446F8
:103910000122022100F010F840B933460022802134
:103920002046009500F008F8002804D0606D40F0B3
:10393000200060650320F8BD2DE9F8431E4691463E
:1039400088460446089DFDF789FA401B351AFDF7A5
:1039500085FA074625480068C0F3CB30684338E055
:10396000701C37D0FDF77AFAC01BA84203D215B1FC
:10397000009860B32CE02068416821F0E0014160CC
:103980006068B0F5827F0BD1A068B0F5004F02D01F
:10399000B0F5806F04D12068016821F0400101601A
:1039A000A06AB0F5005F09D12068016821F40051D8
:1039B00001602068016841F400510160012084F831
:1039C0005100002084F850000320BDE8F883002552
:1039D000401E00902068816838EA010004D0002170
:1039E0004945BDD10020F0E70121F9E7D8000020CA
:1039F0003EB5FF248DF80810012301AA02A9009406
:103A0000FEF7FEF808B18DF804409DF804003EBDB5
:103A10007047FDF7E3BC30B58FB028216846FCF74E
:103A2000ACFB14210AA8FCF7A8FB01210804CDE98E
:103A300000100024029402250491CDE907504FF4B0
:103A4000E01009906846FDF73DFE08B172B6FEE74A
:103A50000F20CDE90A054FF48060CDE90C4002212A
:103A60000AA80E94FDF752FD002801D072B6FEE7B9
:103A70000FB030BD704700000148FEF712BB0000D8
:103A8000D8010020F0B50268194B1A4C1A4D4FF0BE
:103A90008047984205D0B84203D0A04201D0A84246
:103AA00003D122F070064A683243984205D0B842EA
:103AB00003D0A04201D0A84203D122F44074CA68C6
:103AC00022434C6922F08002224302608A68C2626B
:103AD0000A688262984201D109690163012141614A
:103AE0000169C90703D0016921F001010161F0BD3D
:103AF000002C0140000400400008004010B501F017
:103B00001F030121046A99408C430462016A9A40B0
:103B10001143016210BD10B5846842EA032224F407
:103B20007F440A432243826010BD826822F0700203
:103B30000A4342F0070181607047000030B5036A14
:103B4000026A22F0010202624268846924F073056D
:103B50000C682C4323F002058B682B430A4DA842C6
:103B60000BD123F00805CB6822F440722B434D693A
:103B700023F0040315438A692A434260846149683B
:103B80004163036230BD0000002C014030B5026A81
:103B9000036A23F010030362436884690D6824F408
:103BA000E64444EA05248D6822F0200242EA051228
:103BB0000B4DA8420ED1CD6822F0800242EA0512D8
:103BC0004D6923F4406343EA85038D6922F0400286
:103BD00043EA85034360846149688163026230BDC2
:103BE000002C014030B5036A026A22F4807202623E
:103BF0004268C46923F4007324F073050C682C43F5
:103C00008D6843EA05230C4DA8420ED1CD6823F4FC
:103C1000006343EA05234D6922F4405242EA05124B
:103C20008D6923F4806342EA05124260C4614968E9
:103C3000C163036230BD0000002C014030B5046A4E
:103C4000026A22F4805202624268C3690D6823F45A
:103C5000E64343EA05238D6824F4005444EA05341E
:103C6000064DA84204D14D6922F4804242EA8512F1
:103C70004260C36149680164046230BD002C0140A8
:103C800010B5036A046A24F001040462846924F014
:103C9000F00444EA021423F00A020A438461026237
:103CA00010BD10B5036A046A24F01004046284692C
:103CB00023F0A00324F4704444EA023243EA0111E1
:103CC0008261016210BD10B5406A0021C185C184C6
:103CD000FEF7D2FB10BD01680C3151E8002F22F431
:103CE000907241E80023002BF5D10168143151E8AE
:103CF000002F22F0010241E80023002BF5D1016BD7
:103D0000012909D101680C3151E8002F22F010027D
:103D100041E80023002BF5D1202180F8421000213A
:103D20000163704708B590F84210222901D00220A3
:103D300008BD82684FF480539A4201D1016921B1D4
:103D4000816A9A421BD04AB10AE00268816A5268CD
:103D5000C2F308020A80816A891C08E0026972B114
:103D60000268526802F07F020A70816A491C81620F
:103D7000C18D491E0904090CC18503D01BE00268EE
:103D80005268F1E70168CA6822F02002CA6001683F
:103D9000CA6822F48072CA6001684A6922F001028E
:103DA0004A61202180F8421000214163026B012A00
:103DB00003D0FEF70BFD002008BD016301680C3144
:103DC00051E8002F22F0100241E80023002BF5D12A
:103DD00001680A68D20602D50A6849680091818D97
:103DE000FEF749FBE7E7000070B50446006801698B
:103DF000E26821F44051114301612169A068084340
:103E0000616908432168CA6841F20C639A4302431E
:103E1000CA6020684169A26921F44071114341617F
:103E20001E492068884202D1FDF716FC01E0FDF72B
:103E300003FC00EBC00101EB00126068642180000C
:103E4000B2FBF0F3B3FBF1F36FF018067343B2FB70
:103E5000F0F5B2FBF0F605EB8305322303EB051515
:103E6000B5FBF1F5B6FBF1F605F0F00505EB06152F
:103E7000B2FBF0F6B2FBF0F0B0FBF1F06FF018021D
:103E8000504306EB800003EB0010B0FBF1F021681B
:103E900000F00F002844886070BD00000038014029
:103EA0002DE9F843984617460D460446089E24E03F
:103EB000701C22D0FCF7D2FFA0EB0800B0421AD849
:103EC000CEB12068C168490717D5802D15D0402D87
:103ED00013D00168C94309070FD401680025406861
:103EE00000902046FFF7F7FE0820606484F84050F9
:103EF0000120BDE8F8830320FBE72068006835EA6D
:103F0000000004D00020B842D2D00020F1E7012008
:103F1000F9E700000148FEF7B1BA0000680200208E
:103F2000FEE700000FB4054B10B503A9044A029840
:103F300000F00EF910BC5DF814FB0000F14A000817
:103F4000DC0000204100080218BF04200A0E18BF40
:103F500040F001004FF07F4232EA010108BF40F01B
:103F60000200012808BF052070470907090E002834
:103F700004DB00F1E02080F80014704700F00F002F
:103F800000F1E02080F8141D704700214FF07E50B2
:103F9000FCF788B90121FCF7C3B9FCF7F9B8002197
:103FA0000846FCF77FB961214FF0E040FCF7B8B953
:103FB0006FF05E010807FCF7B3B900002DE9F04D82
:103FC0000D4614464FF07F41B1EB440F9EBF4FF0BA
:103FD000FF312960BDE8F08D4FF0004040EA042138
:103FE000C4F3C750783810F01F024A4B4FEA601CE8
:103FF000C2F120067B44C4F3C750A0F178004FEA19
:10400000601003EB800053F82C3008BFD0E901C6E4
:1040100012D0D0F804C093402CFA06F73B438768CF
:104020000CFA02FC27FA06F8C06807FA02F2F04020
:104030004CEA080C42EA0006A3FB0132ACFB01C0CB
:10404000A6FB016101EB0C068E4234BF4FF0010C60
:104050004FF0000CC1186144BCF1000F02D0814246
:1040600002D903E0814201D2012000E00020104487
:1040700000F120024FEA92188006CA0C40EA423052
:104080004F03C5F80080FCF7DFFA82463846FCF79C
:10409000E4FA6FF01201FCF743F907463046FCF7EB
:1040A000DCFA6FF02501FCF73BF9834639465046B0
:1040B000FCF76EF85946FCF76BF800F500666FF3F5
:1040C0000B0651463046FCF7B5F83946FCF7B2F816
:1040D0005946FCF7B2F81049FCF7B2F807460F4909
:1040E0003046FCF7ADF83946FCF752F807460C4964
:1040F0003046FCF7A5F83946FCF74AF814F0004FB3
:1041000008BFBDE8F08DC8F1805180F00040296003
:10411000BDE8F08DA0290000DB0FC92F22AAFD29E0
:104120000000C92F02E008C8121F08C1002AFAD1F6
:1041300070477047002001E001C1121F002AFBD127
:10414000704700000149086070470000E00000204F
:104150002DE9FF4F8BB088460546002606E025284E
:104160000BD0DDE90D1290476D1C761C28780028D5
:10417000F5D10FB03046BDE8F08F0024A146A2462D
:104180000122AE4900E0044315F8013F203B02FA4A
:1041900003F00842F7D128782A2810D06FF02F02B8
:1041A0002878A0F13001092915D809EB890102EB23
:1041B000410144F0020400EB01096D1CF0E758F8DE
:1041C000041B5FEA010903D544F40054C9F1000956
:1041D00044F002046D1C28782E2817D115F8010F21
:1041E00044F004042A280ED06FF02F022878A0F1A2
:1041F000300109290AD80AEB8A0102EB410100EBE0
:10420000010A6D1CF2E758F804AB6D1C28786C2885
:104210000FD006DC4C2817D068280DD06A2814D19E
:1042200004E0742810D07A280FD10DE044F4001473
:104230000AE044F4801401E044F4401469788142B7
:1042400002D104F580146D1C6D1C2878692865D096
:1042500006DC00288DD0632827D0642806D15DE0D5
:104260006E2808D073282AD0752877D0DDE90D1282
:104270009047761CE0E0C4F30250022809D00328DE
:104280000DD0D8F8001004280DD00E6008F10408F5
:10429000D2E0D8F80010F217C1E90062F6E7D8F8CA
:1042A00000100E80F2E70E70F0E718F8041B8DF88E
:1042B000001000208DF80100EB46012003E058F8C3
:1042C00004BB4FF0FF3061074FF0000701D40AE054
:1042D0007F1C57450DDA8742FADB1BF807100029CF
:1042E000F6D106E07F1C8742FCDB1BF80710002993
:1042F000F8D1DDE90D23A9EB07008146214600F046
:10430000B1F83044C61904E0DDE90D121BF8010BC9
:1043100090477F1EF8D22146484688E058F8040BA3
:10432000C4F302514FF00A0B032900D100B2042953
:1043300000D140B2002802DA40422D2102E02105DE
:1043400005D52B218DF82410012104E006E0E107BA
:1043500010D02021F6E708AF089113E058F8040BBD
:10436000C4F302514FF00A0B032900D180B2042993
:1043700000D1C0B20021EEE75946FCF7CCF930314C
:1043800007F8011D0028F7D1ADEB070000F1200B65
:10439000600702D524F4803401E04FF0010ADA45C9
:1043A00002DDAAEB0B0000E00020824600EB0B01CF
:1043B00008980144A9EB01000A90E00306D4DDE966
:1043C0000D2321460A9800F04DF806444FF00009ED
:1043D00008E009A911F80900DDE90D12904709F17B
:1043E0000109761C08998945F3DBE0030CD5DDE96A
:1043F0000D2321460A9800F035F8064404E0DDE973
:104400000D1230209047761CBAF10001AAF1010A82
:10441000F5DC05E0DDE90D1217F8010B9047761C7D
:10442000BBF10001ABF1010BF4DC0A982146DDE998
:104430000D2300F005F806446D1C97E609280100DD
:104440002DE9F041044600251E461746880404D491
:1044500005E039462020B0476D1C641EF9D528467A
:10446000BDE8F0812DE9F041044600251E46904646
:10447000C80301D5302700E02027880404D505E0D3
:1044800041463846B0476D1C641EF9D52846BDE844
:10449000F08100002DE9F04104464FF00E4000EBA2
:1044A0004400B0F1506F204655D84FF0FC41B1EBBD
:1044B000440F1CD224F000404FF07E51FBF7BDFEAC
:1044C0004FF0FF31FBF72CFF054601F073FD14F0B0
:1044D000004F1DBF2F4F304E80F000402F4F08BFC0
:1044E0002F4E4FF04041FBF7ABFE044605E000279E
:1044F0003E460146FBF7A4FE05462A492846FBF73F
:104500009FFE2949FBF744FE2946FBF799FE274900
:10451000FBF73EFE2946FBF793FE2549FBF738FEE5
:104520002946FBF78DFE2349FBF732FE80462946DC
:104530002046FBF785FE4146FBF782FE05463146E5
:104540002046FBF725FE2946FBF722FE3946BDE84B
:10455000F041FBF71DBE4FF0E441B1EB440F08D929
:10456000FFF7F0FC042808BFFFF722FD2046BDE856
:10457000F0814FF07F41B1EB440F03D2BDE8F04131
:10458000FFF708BD0120FFF7DDFDBDE8F041FFF7B3
:1045900006BD00000000C9BF22AAFDB90000C93F46
:1045A00022AAFD3924FE1C3DC78AD83C1E67383D2F
:1045B0001B93993DAFAA2A3E2DE9F0474FF0684280
:1045C00002EB40030C460546B3F1654F3CBF02EBDE
:1045D0004102B2F1654F80F0CD8000BFC0F3C752F9
:1045E000C1F3C753D21A1B2A06DD10F0004F14BFC7
:1045F00087488848BDE8F08712F11A0F2FDA11F0CA
:10460000004F06D010F0004F0CBF83488348BDE830
:10461000F08721462846FBF745FE0646FFF792FC49
:10462000042808BFFFF7C4FC2846FFF78BFC0546AB
:104630002046FFF787FC04463046FFF783FC042D35
:1046400018BF052D08D1042C18BF052C04D1002853
:1046500004BF0220FFF776FD3046BDE8F087420038
:10466000B2EB410F25D910F0004F19BF6C4F6D4EC2
:104670006D4F6E4E224685F0004415460A4680F086
:10468000004110460A1A5200B2F1807F3ED24840E3
:104690006749DFF8A0A110F0004F18D04FF03F4855
:1046A0003846FBF7C7FD074651463046FBF7C2FDCB
:1046B00017E011F0004F04BF00263746E2D010F09B
:1046C000004F19BF5C4F5D4E5D4F5E4EDAE74FF015
:1046D0007C583846FBF75CFD074651463046FBF7F1
:1046E00057FD064641462846FBF7AAFD2146FBF743
:1046F0004FFD824621464046FBF7A2FD2946FBF7C7
:104700009CFD5146FBF7CEFD044604E021462846B9
:10471000FBF7C8FD04460146FBF792FD80464A4977
:10472000FBF78EFD4949FBF733FD4146FBF788FD5A
:104730004749FBF72DFD4146FBF782FD4549FBF755
:1047400027FD4146FBF77CFD4349FBF721FD05466C
:1047500041462046FBF774FD2946FBF771FD3146C3
:10476000FBF716FD2146FBF713FD3946BDE8F04780
:10477000FBF70EBD4FF07F42B2EB400F28BFB2EB0C
:10478000410F03D2BDE8F047FFF707BC40EA010341
:104790005B0008BF44F0FF410AD0B2EB400F08BFF6
:1047A000B2EB410F06D125F0804024F08041054650
:1047B0000C4613E7B2EB400F12BF5FEA410345F02E
:1047C000FF4004F000413FF409AFB2EB410F12BFCC
:1047D0005FEA400205F0004044F0FF413FF4FEAEC6
:1047E0004A0092EA40033FF5F9AE002AACBF4FF011
:1047F0009F464FF03E563146FBF722FD05463146B7
:104800002046FBF71DFD044628462146E6E600004B
:10481000DB0FC9BFDB0FC93FDB0F4940DB0F49C0CE
:104820000000C9BF22AAFDB90000C93F22AAFD3974
:104830000060ED3EC30ACE37000049C022AA7DBA0F
:104840000000494022AA7D3A2DAD65BD8FB8D53D07
:104850000FB511BE61C84C3EA8AAAABE2DE9F05FF3
:1048600093460A46044659461046FBF71BFD01468F
:104870002648FBF717FD01F0B3FB06460146FBF7A0
:10488000DFFC8246DFF888805546404600F042F85B
:104890000121FBF745FD3146FBF7D2FC4FF07E5975
:1048A0004946FBF775FC2946FBF772FC0746504664
:1048B0003946C4F800B0FBF7F5FC05460121E0607D
:1048C000FBF72EFDC4E9040550464946FBF7B2FC50
:1048D0000121FBF725FD3946FBF7E4FC60605546F6
:1048E000404600F017F80121FBF71AFD3146FBF7AF
:1048F000A7FC4946FBF7A1FC2946FBF749FC3946D2
:10490000FBF7D0FCA060BDE8F09F0000DB0F494042
:10491000DB0F493F2DE9F843044602464F486946FC
:10492000B0EB420F09D94FF0E640B0EB420F94BF15
:1049300000204FF0FF30009030E0494B22F0004063
:10494000834271D947492046FBF77AFCFBF780FF89
:104950008046FBF798FE00F0030000904249404675
:10496000FBF76EFC054641494046FBF769FC0646ED
:104970003F494046FBF764FC07463E494046FBF78B
:104980005FFC2146FBF759FC3946FBF753FC3146E7
:10499000FBF750FC2946FBF74DFC04462546009CDE
:1049A000002C45DB294614F0010F08461CD0FBF70C
:1049B00047FC06463049FBF743FC3049FBF73DFC1A
:1049C0003146FBF73DFC2E49FBF7E2FB3146FBF796
:1049D00037FC2946FBF734FC2946FBF7D9FB14F0DA
:1049E000020F1CD0BDE8F883FBF72AFC05462549D9
:1049F000FBF726FC2449FBF7CBFB2946FBF720FC01
:104A00002249FBF7C5FB2946FBF71AFC4FF07E5104
:104A1000FBF7BEFB14F0020F08BFBDE8F88380F07F
:104A20000040BDE8F883FFE71046FFF7C7FAB4E798
:104A30006800B0F17F4F3CBF4FF07E50BDE8F88377
:104A400007D14FF00100FFF77DFBBDE8F843FFF70A
:104A5000A6BA2846BDE8F843FFF79CBAB61F927E77
:104A6000490E494683F9223F1A61342C0020A233B3
:104A700000A0FD390000C93F336D4C39DA82083C93
:104A8000A0AA2ABEB93AB2BACA9F2A3DDDFFFFBE2C
:104A900070B514480068FBF7F6FD052690FBF6F4A8
:104AA000114D12482C600068FBF7EDFD90FBF6F00D
:104AB000002205F108016860002C02DD4C700A70CC
:104AC00004E001DAC4F100040C704A70002802DD31
:104AD0008870CA7070BD01DAC0F10000C8708A70B9
:104AE00070BD0000A0000020A80000209C00002055
:104AF00038B504468DF800000223012269460248B9
:104B0000FDF765FE204638BD680200202DE9F04122
:104B1000044600688846B0F5000F02DA0846BDE892
:104B2000F081E769A1683846FBF78AFBA66905466C
:104B300030466168FBF784FB4146FBF77EFB294664
:104B4000FBF778FB054638466169FBF779FB804641
:104B500030462169FBF774FB07462846E168FBF7FE
:104B60006FFB3946FBF714FB4146FBF711FBC4E929
:104B70000656D4E710B58AB0012400F01DFD144894
:104B80000078D8B113480078E8B1002112480691A6
:104B9000079108910991D0E904230292CDE90331EC
:104BA0000591C168CDE9004190E80E000B4800F086
:104BB0004FF90AB0BDE8104000F086BB0AB0BDE86E
:104BC000104000F0B1BC0AB0BDE8104000F098B849
:104BD0003800002098000020480300200AD7233C1A
:104BE0002DE9FF5F444C61680F463846FBF728FB10
:104BF0000390A16800910846FBF722FBE168054697
:104C00008B465846FBF71CFB06462068394604468F
:104C1000FBF716FB029020460099FBF711FB81463B
:104C200059462046FBF70CFB804638460099FBF7B7
:104C300007FB824659463846FBF702FB019059466E
:104C40000098FBF7FDFA834601213046FBF768FB2D
:104C500007463C4601212846FBF762FB4FF07E5693
:104C600005463146FBF7E9FA2146FBF7E3FA234C08
:104C7000414620605046FBF7DDFA0121FBF750FB6F
:104C8000606049460198FBF783FA0121FBF748FB76
:104C9000A06041465046FBF77BFA0121FBF740FB41
:104CA000E06001210398FBF73BFB3146FBF7C5FAB7
:104CB00006463946FBF7BEFA206158460299FBF7D3
:104CC000B9FA0121FBF72CFB606149460198FBF71B
:104CD000B1FA0121FBF724FBA06158460299FBF7CA
:104CE00057FA0121FBF71CFBE06129463046FBF730
:104CF000A1FA2062BDE8FF9F0800002024030020E5
:104D00002DE9FC5F4F4DB5F90400FBF79DFC04460F
:104D1000B5F90200FBF798FC2146FFF74DFC4A4C21
:104D20006062B5F90400FBF78FFC0746B5F9000097
:104D3000FBF78AFC3946FFF73FFC80F00040A06299
:104D4000606AFFF7E7FD606A01F070F8A06AFFF79C
:104D5000E1FDA06A01F06AF84FF0FF352946606A6C
:104D6000FBF7DEFAFFF7D6FD82462946606AFBF7BD
:104D7000D7FA01F05BF883462946A06AFBF7D0FA20
:104D8000FFF7C8FD81462946A06AFBF7C9FA01F082
:104D90004DF8074629463046FBF7C2FA0546FFF7AD
:104DA000B9FD8046284601F041F805463946584687
:104DB000FBF746FA29460190FBF742FA06464946B8
:104DC0005046FBF73DFA41460090FBF739FA314671
:104DD000FBF7DEF9206039465046FBF731FA824690
:104DE0002946FBF72DFA064649465846FBF728FAAE
:104DF00007464146FBF724FA3146FBF71BFA606091
:104E000038462946FBF71CFA064650464146FBF752
:104E100017FA3146FBF7BCF9A06041460198FBF751
:104E20000FFA064629460098FBF70AFA3146FBF7C7
:104E300001FAE060FFF7D4FE044901200870BDE8E4
:104E4000FC9F00005800002008000020980000206F
:104E50002DE9FF4F83B00027DDE918B406993E46DF
:104E60003D460846FBF7ECF9059981460846FBF7F5
:104E7000E7F9049980460846FBF7E2F94146FBF75B
:104E800087F94946FBF784F901F094F8FE49824618
:104E9000BBF1000F1FD0DFF8F483894644450BDDDA
:104EA00049462046FBF7C6F90446F7E7494620463F
:104EB000FBF76EF9044601E0DFF8D4834445F5D8EA
:104EC0004FF0FF312046FBF72BFA00F0AFFF2946E9
:104ED000FBF75EF9054617990846FBF7B1F91699F5
:104EE00080460846FBF7ACF9159904460846FBF7DF
:104EF000A7F92146FBF74CF94146FBF749F914990C
:104F0000DFF890B3E44C002968D0584566DD00F026
:104F100005FA804601461598FBF792F9159041462F
:104F20001698FBF78DF9169041461798FBF788F90C
:104F300081464946A068FBF783F90090606816999E
:104F4000FBF77EF9804620681599FBF779F9414611
:104F5000FBF71EF90099FBF71BF98046494660698B
:104F6000FBF76EF9009020691699FBF769F9814605
:104F7000E0681599FBF764F94946FBF709F90099D0
:104F8000FBF706F981460146FBF75AF941460090C6
:104F90000846FBF755F90099FBF7FAF801F00AF813
:104FA00001464846FBF74CF980F000484146A069AD
:104FB000FBF746F93946FBF7EBF807464146E0694F
:104FC000FBF73EF93146FBF7E3F806464146206A17
:104FD000FBF736F92946FBF7DBF805461399084637
:104FE000FBF72EF9129981460846FBF729F911992A
:104FF00080460846FBF724F94146FBF7C9F84946C5
:10500000FBF7C6F81099002947D0584545DD00F058
:1050100085F9804601461198FBF712F91190414637
:105020001298FBF70DF9129041461398FBF708F917
:105030001390D4F81C904946FBF702F9D4F820806D
:10504000834641461298FBF7FBF85946FBF7F2F806
:105050003946FBF79DF8074641461198FBF7F0F8F3
:10506000A469804621461398FBF7EAF84146FBF70E
:10507000E1F83146FBF78CF8064621461298FBF71B
:10508000DFF8044649461198FBF7DAF82146FBF7AA
:10509000D1F82946FBF77CF80546804C6069B0F5ED
:1050A000000F7DDB7E4A924520DA80463946FBF7C9
:1050B000C7F80399FBF7C4F8A169FBF769F8A06189
:1050C00031464046FBF7BCF80399FBF7B9F8E169B4
:1050D000FBF75EF8E06129464046FBF7B1F803991B
:1050E000FBF7AEF8216AFBF753F82062D4F8108082
:1050F00039464046FBF7A4F8A169FBF749F8049943
:10510000FBF746F8074631464046FBF799F8E16958
:10511000FBF73EF80599FBF73BF806462946404663
:10512000FBF78EF8216AFBF733F80699FBF730F8A6
:1051300005464FF0FF310398FBF7F2F880463946F9
:10514000FBF77EF8049040463146FBF779F805906E
:1051500040462946FBF774F88346D4E90150266897
:105160008146E068B24659460090FBF769F88046F0
:1051700048460599FBF764F8074685F00040049916
:10518000FBF75EF83946FBF755F84146FBF752F856
:105190003146FAF7FDFF206080460599009800E04F
:1051A0008DE0FBF74DF8074659464846FBF748F8AF
:1051B000064650460499FBF743F83146FAF7E8FFF4
:1051C0003946FBF737F82946FAF7E2FF60600746F1
:1051D00004990098FBF734F8019059462846FBF7EC
:1051E0002FF8064650460599FBF72AF83146FBF79B
:1051F00021F80199FAF7CCFF4946FAF7C9FFA060F8
:10520000064648460499FBF71BF88146284605994F
:10521000FBF716F8054659465046FBF711F82946A4
:10522000FAF7B6FF4946FBF705F80099FAF7B0FF21
:105230000146E060FBF704F8814631460846FAF77C
:10524000FFFF054639460846FAF7FAFF064641468B
:105250000846FAF7F5FF3146FAF79AFF2946FAF7BA
:1052600097FF4946FAF794FF00F058F805460146C3
:105270002068FAF7E5FF206029466068FAF7E0FF4A
:1052800060602946A0680DE0D80FC940D80F49409A
:10529000D80F49C00AD7233C24030020080000206F
:1052A000C2B8B23EFAF7CCFFA0602946E068FAF730
:1052B000C7FFE06007B0BDE8F04FFFF791BC0020EA
:1052C000A061E06111E7000070B50E4CD4E9070160
:1052D000FFF772F90C4D2946FAF7B2FF0B49086047
:1052E000A069FFF7D7F80A49FAF7AAFF0949086049
:1052F0002168E068FFF760F92946FAF7A1FF06493F
:10530000086070BD24030020E12E65429C0000204F
:10531000E12E65C2A0000020A400002010B500F01E
:1053200049FE0146BDE810404FF07E50FAF7BABF83
:1053300008B5FCF75BF8FEF76EFBFDF77BFEFDF7AB
:10534000D5FEFDF7D9FFFDF765FFFDF7EFFEFDF791
:1053500011FFFDF791FFFBF735FBFEF77BF902E04C
:105360000A20FBF767FCFDF7ABFD0128F8D06420AD
:10537000FBF760FC4548FBF74FFB4548FCF7F6FDA3
:105380004FF47A7B05E043A0FEF7CCFD5846FBF7CF
:1053900051FCFDF7CFFF0028F5D146A0FEF7C2FD76
:1053A000FEF732F84BA0FEF7BDFD00214E48FDF799
:1053B00003F808214D48FCF7FFFF0C214B48FCF790
:1053C000FBFF4B4E4B4C4C4FDFF83091DFF830A1D8
:1053D0004FF0010803250120FDF76AFC2070032827
:1053E00002D006280FD107E06068584502DBC4F8F8
:1053F00004B008E0143005E06068002801DC0020FB
:1054000000E014386060307808B100F0EDFC012154
:105410003CA20846FEF717FA6068FBF715F93B490E
:10542000FAF740FF0246042305210120CDF8008051
:10543000FEF7B0F936A20B210120FEF704FA35A2DF
:1054400001210220FEF7FFF9009506230721022023
:105450003A68FEF79FF931A201210320FEF7F3F924
:105460000095062307210320D9F80020FEF792F9C2
:105470002CA201210420FEF7E6F90095062307215E
:105480000420DAF80020FEF785F9A4E7B002002036
:10549000D8010020D3B2BCFEB2E9D1B0B2BBB5BDD9
:1054A0004E524632344C3031CEDECFDFC4A3BFE99A
:1054B0000D0A00004E524632344C3031CEDECFDF82
:1054C000C4A3BFE9D3B2BCFEC1ACBDD3D5FDB3A369
:1054D0000D0A0000BDF8C8EBCAFDBEDDB7A2CBCDFA
:1054E000C4A3CABD0D0A00009001002020020020C4
:1054F00038000020000000209C000020A0000020B8
:10550000A40000204C45443A000000000000204167
:1055100025000000726F6C6C0000000070697463FD
:10552000680000007961770070B5204CE5690A2DAC
:105530001BDB1F4E3068FBF7BFF8D4E91223FAF7E4
:10554000FBFEC4E912017068FBF7B6F8D4E9142336
:10555000FAF7F2FEC4E91401B068FBF7ADF8D4E93C
:105560001623FAF7E9FEC4E916016D1CE561B5F5ED
:10557000827F1ADD0F4DD4E9120100222B46FAF783
:10558000F4FFC4E90E01D4E9140100222B46FAF716
:10559000ECFFC4E90C01D4E9160100222B46FAF70E
:1055A000E4FFC4E910010120207070BD3800002024
:1055B0004803002000406F402DE9F05F7B4D2A1D1D
:1055C000A91C2846FDF764FCA5F1060909F10402AF
:1055D000911EA81FFDF744FCA5F12606DFF8D08137
:1055E0003078DFF8D0B10028734CB5F900004FF0E7
:1055F000204A7DD0FBF736F84FF066324346FAF783
:10560000B4FF52465F465B46FAF73DFFD6E90E23EC
:10561000FAF733FFFBF763F82060B5F90200FBF7F8
:1056200021F84FF066324346FAF79FFF52463B4659
:10563000FAF729FFD6E90C23FAF71FFFFBF74FF81B
:105640006060B5F90400FBF70DF84FF06632434691
:10565000FAF78BFF52463B46FAF715FFD6E91023BF
:10566000FAF70BFFFBF73BF8A06021687068FFF7C3
:105670004DFA20606168B068FFF748FA6060A16881
:10568000F068FFF743FAA0604D46B9F90000FAF759
:10569000DBFF6FF00D073946FAF742FEFBF70CF817
:1056A000DFF81881DFF8189142464B46FAF7EBFE17
:1056B000FBF715F801463069FFF728FAE060B5F905
:1056C0000200FAF7C1FF3946FAF72AFEFAF7F4FFAB
:1056D00042464B46FAF7D7FEFBF701F801467069E0
:1056E000FFF714FA2061B5F90400FAF7ADFF00E006
:1056F0002EE03946FAF714FEFAF7DEFF42464B4633
:10570000FAF7C1FEFAF7EBFF0146B069FFF7FEF9C1
:105710002C4982460DC9904691E8E0009946E1681F
:10572000FAF78EFD2946FAF733FDE060404621691D
:10573000FAF786FD3146FAF72BFD206151464846BF
:10574000FAF77EFD3946FAF723FD6061BDE8F09F68
:10575000FAF788FF4FF066324346FAF706FF5246E3
:105760005F465B46FAF78FFEFAF7B9FF2060B5F99E
:105770000200FAF777FF4FF066324346FAF7F5FE7C
:1057800052463B46FAF77FFEFAF7A9FF6060B5F98B
:105790000400FAF767FF4FF066324346FAF7E5FE7A
:1057A00052463B46FAF76FFE5CE700005E000020C1
:1057B0006666304046DF913F480300209A999999E8
:1057C00099992340546100082DE9F04D0E460023BD
:1057D000A0F5000C4FF00071354684B002464FF042
:1057E0007E5401EB45014FF07F48BCF1FE4F80F045
:1057F0009F81B1F1804FC0F0DB81FE490144B1F5DA
:10580000005F40F2A78200F58021C90C01F00F076C
:10581000C1F307117F39A2EBC15501EB030B3846E9
:10582000FAF712FF6FF00301FAF77AFD4FF07E519D
:10583000FAF7AEFC014602902846FAF7FBFC01900D
:1058400028460299FAF7A4FC00F5006A6FF30B0AE8
:10585000009051460298FAF7EDFC2946FAF798FCB9
:1058600002904FF07E500099FAF71CFD014600901F
:105870000198FAF7E5FC00F500656FF30B05284683
:105880000299FAF7DDFC029051462846FAF7D8FC57
:105890000199FAF7D2FC0299FAF7CCFC0099FAF7D1
:1058A000CFFC014601902846FAF772FC01460290AF
:1058B000FAF7C6FC8246D049FAF7C2FCCF49FAF79C
:1058C00067FC5146FAF7BCFC824600212846FAF7ED
:1058D00027FD009051460298FAF7B2FC05460021D8
:1058E0000198FAF71DFD2946FAF752FC8246014657
:1058F0000098FAF74DFC00F500656FF30B0529469B
:105900000098FAF797FC5146FAF742FC8246BC49E8
:105910002846FAF795FC0090BA495046FAF790FCF1
:105920008246B9492846FAF78BFC5146FAF730FC13
:10593000824601460098FAF72BFC00F500656FF3EC
:105940000B0529460098FAF775FC5146FAF720FC3A
:105950008246AE48784450F8371000EBC7000191FA
:1059600047684FEA0B10FAF76FFE00903946504631
:10597000FAF70EFC2946FAF70BFC0199FAF708FC36
:105980000099FAF705FC00F5006B6FF30B0B584616
:105990000099FAF74FFC0199FAF74CFC2946FAF7FF
:1059A00049FC3946FAF746FC5146FAF746FC06F53B
:1059B000006782466FF30B0739463046FAF73AFC28
:1059C000002100900846FAF7E4FF00F00C06394683
:1059D0005846FAF735FC054620F00040B0F18B4FF1
:1059E0000ADDB8EB400F07D34FF08B4060F31E0584
:1059F0002F464FF0000A1FE038460099FAF7C8FB1F
:105A00005146FAF71DFC074658460099FAF718FC6C
:105A10003946FAF7BDFB824601462846FAF7B8FB3D
:105A200000F500676FF30B0739462846FAF702FCCA
:105A30005146FAF7ADFB824631460C20FAF7A9FF32
:105A400051463846FAF7A4FBFAF77DFF06460511E2
:105A5000FAF7FAFD3946FAF7F0FB5146FAF798FBE8
:105A600007466B49FAF7ECFB6A49FAF791FB3946AE
:105A7000FAF7E6FB6849FAF78BFB3946FAF7E0FBE1
:105A80000146664806F00F06784450F82600FAF7FB
:105A9000D7FB6349794451F82610FAF779FB61493D
:105AA000794451F82610FAF773FB05F17D01FC29C2
:105AB00008D22946FAF734FC04B02146BDE8F04D7F
:105AC000FAF7BEBB05F1BF01B1F5BF7F16D8294675
:105AD000FAF726FC2146FAF7B3FB0546B8EB450F6B
